:020000040000FA
:1000000028020020D90000001F090000D5080000C8
:1000100000000000000000000000000000000000E0
:100020000000000000000000000000006109000066
:100030000000000000000000210900006509000028
:10004000D30900001D0900005B09000077060000CD
:1000500059090000790600007B0600007D060000BB
:100060007F0600006F0600007106000073060000A6
:100070008904000065060000CF090000D1090000D6
:10008000810700009D0700009F070000A1070000F6
:10009000690600006B0600006D060000D90800002C
:1000A000DB0800005D0900005F090000C9090000CD
:1000B000CB090000CD0900006706000075060000AE
:1000C0000448854600F022F900480047FD0A000078
:1000D000C046C0462802002009480A4A002100A163
:1000E000814200D902440848026008488047084815
:1000F0000047FEE7FEE7FEE7FEE7FEE7FEE700005B
:10010000000000200000000008ED00E08D09000064
:10011000C100000003460B439B0703D009E008C958
:10012000121F08C0042AFAD203E00B780370401CA7
:10013000491C521EF9D27047F8B502464A40D40F06
:1001400042004B0052085B089A4202D2024608461F
:1001500011464A0023D0C30D4A00DDB2120EAD1A7B
:10016000202D35DA49020126490AF6058A19002CA4
:1001700000D0524220214F1B1146B9402A4110188D
:10018000C20D9A4221D0002C17D0012D08DCDA05CF
:10019000801AD20F8019D207DBB200F07DF8F8BDCB
:1001A000DA05801A012340001B06C01880185A4245
:1001B0008018CA0F1043490007E04908C2071143DD
:1001C000DA05801A80194008801800F05DF8F8BD43
:1001D00061000122511A001BF7E70122D2075140AA
:1001E000AAE70122D2075040A6E7024670B54A406E
:1001F000D30FDB0740002DD04A002AD0010E140E89
:10020000000212020919400A520A8418E501044644
:100210005443000A120A2E045043A4194219200C18
:10022000C543AA18120C0125AD03521C5219120421
:100230007F39240400D0521C104301D44000491ED1
:10024000C2B20C06C0092018401C4008802A02D007
:1002500003E0002070BD40084000002900DA0020C3
:10026000184370BDC217C10F504010B54018CA07DF
:100270009623002100F010F810BD10B5002296233F
:10028000114600F009F810BD002904DA401C4900AD
:1002900001D140084000704770B40024050C05D11E
:1002A0001024000402D1002921D01124050E01D10F
:1002B00000020834050F01D10001241D850F01D172
:1002C0008000A41C002801DB4000641C002908D029
:1002D00020252E1B0D46F540A14000D001212943C9
:1002E000084301061B1B000ADB1D02D5002070BC61
:1002F0007047DB05181880180029F8DA401C4900FF
:10030000F5D170BC4008400070470000064C012544
:10031000064E05E0E36807CC2B430C3C98471034AD
:10032000B442F7D3FFF7D0FEAC0B0000CC0B0000BB
:100330000D2803D00E2801D00F2806D10C490968DA
:100340000122520311430A4A11600F2806D10849BD
:10035000096810221143064A116007E00E2805D1F2
:100360000349096820221143014A116070470000C7
:10037000002401400348806BC009C0010149886323
:10038000704700000024014000B5064800680121C4
:1003900008430449086000BF802000F041F80028AD
:1003A000FAD000BD0024014010B50446204600F0FC
:1003B00001F810BD10B50446042C14D20C2000F036
:1003C00009FB0C20002809DB00BF00BFC206D20ECB
:1003D00001219140044A116000BF00BF00BF2146C7
:1003E0000C2000F03FFB10BD00E100E010B5002242
:1003F0000246002905D0064BDB691343044CE36138
:1004000004E0034BDB699343014CE36110BD000042
:10041000002401400148006A80B270470024014076
:1004200001460448C06B0840002801D001207047F5
:100430000020FCE7002401400149C96B01707047AE
:1004400000240140FEB5044693204002467A878985
:10045000FFF7E0FF0546E81BFFF704FF094900909E
:10046000FFF7C3FE02903046FFF707FF3F21090662
:100470000090FFF7BAFE01900299FFF75DFE206041
:10048000FEBD0000448B6C3E10B50348FFF7D4FF5F
:10049000FFF770FF10BD00000C00002010B5002217
:1004A000C2B2002905D0064B5B6B1343044C636357
:1004B00004E0034B5B6B9343014C636310BD00008E
:1004C0000024014082680169114342681143C268F7
:1004D00011434269114302681143184A1268184BCC
:1004E0001A401143154A1160C26981691143134AC8
:1004F0005268C0239A431143104A5160016A00298F
:100500000AD0114609699A00914301235B02026AED
:100510001A431143094A1161C16880290CD1094964
:10052000096B20221143074A11630749C969490829
:100530004900491C044AD161704700000024014071
:1005400011C0FFFF00000140000400480A48006B92
:1005500010210843084908630846406B04210843FA
:10056000054948630920C006C06902218843801CF0
:100570000921C906C86170470000014010B5044652
:1005800020460830FFF79EFF2068FFF7D1FE0121CB
:100590004903206B884203D120462C3000F02AF812
:1005A000216860680843044949682F229143084341
:1005B0000149486010BD00000024014010B5044608
:1005C0002046FFF7DBFF034800680E2188430149FE
:1005D000086010BD0024014000210160416081607D
:1005E000C021C1600021016141618161C16101627D
:1005F00070470000026841681143124A52682F2375
:100600001B029A4311430F4A5160C268816811432B
:10061000026911430B4A526B38239A431143094A2A
:10062000516341695161816991610F221202016830
:10063000914205D10349096810221143014A116012
:10064000704700000024014000210160416081608A
:10065000C160016102494161002181617047000070
:10066000FF0F000070477047704770477047704732
:1006700070477047704770477047704770477047C2
:100680004A68002A04D1C2690B681A43C26174E047
:10069000C2690B689A43C26110234A681A40102A43
:1006A0004ED102680B681A4302604A68112A07D1CA
:1006B00002690B681A430261C2680B689A43C26000
:1006C0004A68122A07D1C2680B681A43C2600269DD
:1006D0000B689A430261426A0B689A434262826ADB
:1006E0000B689A438262C26A0B689A43C262026BC9
:1006F0000B689A43026381238A681A40812A03D1D6
:10070000426A0B681A43426282238A681A40822A2C
:1007100003D1826A0B681A43826284238A681A4072
:10072000842A03D1C26A0B681A43C26288238A688A
:100730001A40882A21D1026B0B681A4302631CE01D
:1007400002680B689A4302604A68202A04D1426812
:100750000B689A43426003E042680B681A434260A8
:10076000064BCA689A4204D182680B681A438260B9
:1007700003E082680B689A4382607047FFFF0000C5
:1007800010B50121044800F020F8002803D0012111
:10079000014800F006F810BD0004004070477047A3
:1007A0007047CA4303231B02C318DA617047032250
:1007B00012028218126952085200CB07DB0F1A434B
:1007C00003231B02C3181A6170470246032000026C
:1007D000101880690840002801D0012070470020CF
:1007E000FCE710B5002A09D003231B02C3185B697C
:1007F0000B43032424020419636108E003231B0252
:10080000C3185B698B43032424020419636110BD80
:1008100000B585B01A48806B0221084318498863E7
:1008200000200090019008150390164804900120C4
:1008300069460872144800F02DF80122114612484A
:10084000FFF7CFFF1020002805DBC206D20E0121E2
:1008500091400E4A116000BF1020002809DB00BF44
:1008600000BFC206D20E01219140094A116000BFAB
:1008700000BF00BF0321102000F0B8F805B000BD94
:1008800000000140117A00000004004080E200E016
:1008900000E100E010B54B68CA681A430B681A43C0
:1008A0000B7A002B01D0402300E000231A430323DE
:1008B0001B02C3181B69064C23401A4303231B0267
:1008C000C3181A6103231B02C3180A691A6010BDFA
:1008D00019F8FFFF00BFFEE7704770471FB50C48CF
:1008E000006B202108430A4908630320000200909E
:1008F000202001900748039069460748FFF7C0FE93
:10090000FF200130044940318861400088611FBDEB
:1009100000000140FFFF00000004004870477047DE
:1009200070470000C1029322520212881143084A04
:10093000916111464968074A1143054A516000BF59
:10094000034989690122D20311409142F8D17047CD
:100950000000014001005A5A7047704770477047C5
:1009600070470000034800680349097840180149AE
:10097000086070471800002020000020014802494C
:100980000860704700127A000000002000B5FFF7F1
:10099000F5FF9321490209884805400D09498969F5
:1009A000C90AC9020143074A916193214902498852
:1009B0008805800D1146096A890A8902014311627E
:1009C00000BD00000000014070477047704770474D
:1009D00070477047002805DBC206D20E0121914006
:1009E000014A11607047000080E200E010B5002865
:1009F00019DB1A4A03231B02D21883089B00D25822
:100A00008307DC0EFF23A3409A438B071B0E84074A
:100A1000E40EA3401A43114B032424021B1984083B
:100A2000A4001A5118E00E4A03071B0F083B9B084D
:100A30009B00D2588307DC0EFF23A3409A438B0709
:100A40001B0E8407E40EA3401A43054B0407240F32
:100A5000083CA408A4001A5110BD000000E100E009
:100A60001CED00E010B5002819DB1A4A03231B0215
:100A7000D21883089B00D2588307DC0EFF23A340C3
:100A80009A438B071B0E8407E40EA3401A43114BB5
:100A9000032424021B198408A4001A5118E00E4AEA
:100AA00003071B0F083B9B089B00D2588307DC0EF3
:100AB000FF23A3409A438B071B0E8407E40EA34039
:100AC0001A43054B0407240F083CA408A4001A513C
:100AD00010BD000000E100E01CED00E002E008C8ED
:100AE000121F08C1002AFAD170477047002001E0A8
:100AF00001C1121F002AFBD170470000A2B00520DF
:100B0000FFF710FFFFF722FDFFF7E8FEFFF780FE7B
:100B100019A8FFF761FD40201C9012A8FFF794FD73
:100B2000002001900E200090242219A902A8FFF7AE
:100B3000F1FA1C2212A90BA8FFF7ECFA6846FFF79E
:100B40003DFD01210846FFF7A9FC0320FFF72CFC1F
:100B5000FFF710FCFFF718FC01210220FFF746FC0D
:100B600001210D48FFF723FE14E000BF0B48007879
:100B7000C007C00F0028F9D00020084908700120E4
:100B8000400207490862FFF745FC0649088006480D
:100B9000FFF758FCE9E70000000400400C000020CB
:100BA000400400480400002014000020CC0B00008A
:100BB0000000002024000000DC0A0000F00B000010
:100BC0002400002004020000EC0A000000127A0059
:100BD0000000000000000000000000000000000015
:100BE0000000000000000000040000000100000000
:04000005000000C136
:00000001FF
