:020000040000FA
:1000000018020020D9000000D30D0000C90D000027
:1000100000000000000000000000000000000000E0
:10002000000000000000000000000000E7100000D9
:100030000000000000000000D50D0000E9100000E5
:10004000A1130000D10D0000E11000007F0C0000A2
:10005000050F0000B90C0000BB0C0000BD0C000037
:10006000BF0C0000770C0000790C00007B0C000036
:10007000850A00006D0C00009D1300009F13000016
:10008000C10D0000C30D0000C50D0000C70D00002C
:10009000710C0000730C0000750C0000CD0D000009
:1000A000CF0D0000E3100000E5100000A5110000D6
:1000B000D1110000D31100006F0C00007D0C000076
:1000C0000448854600F07EFC00480047FD1D000006
:1000D000C046C0461802002009480A4A002100A173
:1000E000814200D902440848026008488047084815
:1000F0000047FEE7FEE7FEE7FEE7FEE7FEE700005B
:10010000000000200000000008ED00E06911000080
:10011000C100000030B50B4601460020202201241A
:1001200009E00D46D5409D4205D31D469540491B2B
:100130002546954040191546521E002DF1DC30BD74
:10014000F8B500242546002904DA0E4601240021D2
:100150004042B141002B04DA1E46002352420125E1
:10016000B34100F07FFA8C4617461E46AC4203D0DE
:10017000002540428D41AC46002C02D0002657425B
:100180009E4161463A46334601B0F0BD03460B43FB
:100190009B0703D009E008C9121F08C0042AFAD23D
:1001A00003E00B780370401C491C521EF9D27047C3
:1001B000F8B502464A40D40F42004B0052085B0893
:1001C0009A4202D20246084611464A0023D0C30D85
:1001D0004A00DDB2120EAD1A202D35DA4902012691
:1001E000490AF6058A19002C00D0524220214F1BE3
:1001F0001146B9402A411018C20D9A4221D0002C54
:1002000017D0012D08DCDA05801AD20F8019D20729
:10021000DBB200F093FAF8BDDA05801A0123400042
:100220001B06C01880185A428018CA0F1043490094
:1002300007E04908C2071143DA05801A801940080F
:10024000801800F073FAF8BD61000122511A001BFA
:10025000F7E70122D2075140AAE70122D207504016
:10026000A6E7024670B54A40D30FDB0740002DD009
:100270004A002AD0010E140E000212020919400A87
:10028000520A8418E50104465443000A120A2E0457
:100290005043A4194219200CC543AA18120C012579
:1002A000AD03521C521912047F39240400D0521C91
:1002B000104301D44000491EC2B20C06C0092018E8
:1002C000401C4008802A02D003E0002070BD400896
:1002D0004000002900DA0020184370BD70B50246C6
:1002E0004A40D50F40004A00ED0740085208002858
:1002F00014D0002A12D0C40DD30D41020120C00534
:100300005202490A520AE41A091812187D3491421D
:1003100001D3641C00E04900002C01DA002070BD0C
:100320000023914201D3891A034340084900002861
:10033000F7D100290AD0914202D10121C90705E075
:10034000914201D2012101E00121C943E005C01819
:10035000401900F0EBF970BDF0B50746084658406B
:1003600087B0C00F049048000E4659004008490865
:10037000BC1A884105D2384631461E4617460B4600
:1003800002465800400810434DD0300D0390400500
:100390005900400D490D0590401A0290402873DA2B
:1003A00018030121000B09050843019004980092ED
:1003B000002806D01146019A494200209041009140
:1003C0000190029840210A1A0199009800F07AF9E8
:1003D00005460C466B4607CB00F095F9C0197141F4
:1003E000039A0E0D0023D71756401A467A4016433B
:1003F00044D0049A002A2DD0029A012A039A15DCCF
:100400001205C01A914101263605001C7141D20F18
:10041000059ED2070093019202962A46234600F0D9
:10042000D3F907B0F0BD38463146FAE71605234A3E
:100430000F46B218C01AB74101210905001C4F41EF
:1004400000187F41114618187941E20F10436D19C9
:10045000644113E0E2076D0815436408C2071443C2
:10046000039A01261205C01A91413605001C7141FC
:10047000CE07400830434908C01851412A46234658
:1004800000F095F9CDE7FFE7049801224000C1177D
:10049000121A00238B4104983146C417381AA1411F
:1004A000EEE730B40124E407634030BC54E730B4D5
:1004B0000124E407614030BC4EE700000000E0FF8B
:1004C000F0B51FB488B00B990998002448400999E9
:1004D000C00F490049080991C0070B9900904900D5
:1004E00049080B9109990898A64608431CD00B9916
:1004F0000A98084318D0099801244000420D48008A
:10050000410D099824050003000B204309900B9826
:100510000003000B20430B9050181C494018002288
:1005200001901446104605E0002001460DB0F0BDD4
:10053000032801DA034600E003239C46C11A0AAEF1
:100540000AE05F0008ADED5B4F00F75B7D430027DD
:10055000AA187C41491C5B1E6145F2DD410004ABD9
:100560005A522104120C0A43240C401C0828DFDBD9
:10057000019802900099704601910090059B049AA1
:100580000799069800F020F9D0E700000DFCFFFF66
:1005900010B500229623114600F0D0F810BD41009E
:1005A00040020122400AD205090E80187F2901DA93
:1005B00000207047962903DC9622511AC8407047E4
:1005C00096398840704700004A0009030123090B4F
:1005D0001B051943094B10B5520D9A4201DA002050
:1005E00010BD064B34339A4203DC9A1A00F07AF8B5
:1005F00010BD03495118884010BD0000FF030000E2
:10060000CDFBFFFFC20FD207400040080BD0C10D49
:100610000723DB01C91840020905400A1143C2083B
:10062000400711437047002001467047CB0FDB079E
:10063000490010B5490802460A4307D00A0D0724AD
:100640000903E401090B121B002A01DC002010BD84
:10065000C900440F0C43C100E018D205801800F017
:1006600065F810BDF0B51FB40646002082B00546FF
:100670004024019100901BE0019922460F4630462C
:1006800000F030F8049A059B801A994110D3104667
:100690001946224600F016F8361A8F410197224675
:1006A00001200021009F00F00DF838184D41009006
:1006B0002046641E0028DFDC019B00982946324654
:1006C00007B0F0BD10B5202A04DB0146203A914066
:1006D000002010BD914020239C1A0346E34019439B
:1006E000904010BD10B5202A04DB0846203AD040C7
:1006F000002110BD0B46D340D0402024A21A9140C7
:100700000843194610BD10B5202A06DBCB17084652
:10071000203A1041C1170B4306E00B461341D0406D
:100720002024A21A91400843194610BD002904DA7A
:10073000401C490001D140084000704770B40024BB
:10074000050C05D11024000402D1002921D0112468
:10075000050E01D100020834050F01D10001241D4E
:10076000850F01D18000A41C002801DB4000641C1F
:10077000002908D020252E1B0D46F540A14000D0B1
:1007800001212943084301061B1B000ADB1D02D57A
:10079000002070BC7047DB05181880180029F8DAB3
:1007A000401C4900F5D170BC40084000704710B5AE
:1007B000002B08DA0024401C614192185B411A4367
:1007C00001D14008400010BDF0B51FB482B005460D
:1007D0000C0003D0084600F0F5FD02E000F0F2FD49
:1007E00020300246009021462846FFF76BFF049B0D
:1007F000059A04460F4618431143084314D018467F
:1008000010431BD0009840210A1A18460599FFF79B
:1008100069FF05460E46009A05990498FFF752FFB6
:10082000084305D0012004E02046394607B0F0BD5A
:100830000020C11705430E432C43374300990E98FF
:100840006305401A7905E40A00220C43FD0A0A30C8
:1008500002D500200146E9E70105101969410C9C09
:100860000D9D00196941FFF7A2FFDFE7F0B50C46C7
:100870005C4085B0E40FE40703944C000026640854
:1008800059009446490802460296224321D0624606
:100890000A431ED06200570D4A000E032303550D74
:1008A000012402462C492405781B1B0B360B4018EB
:1008B00023432643614600901C46501AB44103D39B
:1008C0000098401C009002E0921800985B410028BC
:1008D00003DA0020014605B0F0BD00200121090522
:1008E0000746864611E064461D46141BB54106D3F3
:1008F0006546521BB341744607430C43A646CD07D9
:1009000040084908284392185B4105460D43EAD147
:100910001046184313D060461946504071400843B2
:1009200006D06046101AB34106D20122002306E029
:1009300000220123DB0702E00122D243531000987A
:1009400074460105381C6141029C039D00196941F0
:10095000FFF72DFFBFE70000FD0300004A00090379
:100960000123090B1B0519430A4B10B5520D9A427E
:1009700002DA0020014610BD064B34339A4203DCF4
:100980009A1AFFF7AFFE10BD034BD218FFF79AFE7D
:1009900010BD0000FF030000CDFBFFFF10B50029D4
:1009A00004DB0124E40740428C412146002B04DB98
:1009B0001C460123DB075242A341994200D19042D9
:1009C00010BD0000064C0125064E05E0E36807CC8B
:1009D0002B430C3C98471034B442F7D3FFF774FB19
:1009E000D01F0000F01F00000D2803D00E2801D0FA
:1009F0000F2806D10C4909680122520311430A4A03
:100A000011600F2806D10849096810221143064ACF
:100A1000116007E00E2805D103490968202211431F
:100A2000014A1160704700000024014000B50648EB
:100A30000068012108430449086000BF802000F0DD
:100A400015F80028FAD000BD0024014010B501209F
:100A500000F08CF800F004F80446204610BD0000B9
:100A60000148006A80B270470024014001460448F2
:100A7000C06B0840002801D0012070470020FCE72F
:100A800000240140704700008268016911434268F8
:100A90001143C26811434269114302681143184A65
:100AA0001268184B1A401143154A1160C2698169D6
:100AB0001143134A5268C0239A431143104A5160AC
:100AC000016A00290AD0114609699A00914301235D
:100AD0005B02026A1A431143094A1161C168802905
:100AE0000CD10949096B20221143074A11630749B8
:100AF000C96949084900491C044AD161704700008E
:100B00000024014011C0FFFF000001400004004824
:100B100010B5044620460830FFF7B6FF2068FFF7FF
:100B200063FF01214903206B884203D120462C300A
:100B300000F02EF8216860680843044949682F22B4
:100B4000914308430149486010BD00000024014062
:100B500010B504462046FFF7DBFF034800680E216E
:100B600088430149086010BD00240140002806D0D8
:100B70000649896801221143044A916005E003494E
:100B8000896849084900014A916070470024014082
:100B9000026841681143124A52682F231B029A438C
:100BA00011430F4A5160C2688168114302691143C1
:100BB0000B4A526B38239A431143094A51634169E6
:100BC0005161816991610F2212020168914205D140
:100BD0000349096810221143014A1160704700005F
:100BE000002401400021016041608160C160016119
:100BF000024941610021816170470000FF0F000040
:100C000000B5A3B01848006B1021084316490863CB
:100C10000846406B042108431349486300201A909A
:100C200048151B9000201C90C0201D9000201E9095
:100C30001F9020902190229013A8FFF7D3FF00204F
:100C400002900520019024221AA903A8FFF79EFA1A
:100C50001C2213A90CA8FFF799FA01A8FFF778FF47
:100C6000FFF7E4FE23B000BD00000140704770476D
:100C700070477047704770477047704770477047BC
:100C80000A4A126B02239A43921C084B1A630028EB
:100C900004D00822024310231A4300E00022114628
:100CA000034A0A43034B5A607047000000000140AA
:100CB00000005A5A00200240704770477047704742
:100CC0004A68002A04D1C2690B681A43C26174E001
:100CD000C2690B689A43C26110234A681A40102AFD
:100CE0004ED102680B681A4302604A68112A07D184
:100CF00002690B681A430261C2680B689A43C260BA
:100D00004A68122A07D1C2680B681A43C260026996
:100D10000B689A430261426A0B689A434262826A94
:100D20000B689A438262C26A0B689A43C262026B82
:100D30000B689A43026381238A681A40812A03D18F
:100D4000426A0B681A43426282238A681A40822AE6
:100D500003D1826A0B681A43826284238A681A402C
:100D6000842A03D1C26A0B681A43C26288238A6844
:100D70001A40882A21D1026B0B681A4302631CE0D7
:100D800002680B689A4302604A68202A04D14268CC
:100D90000B689A43426003E042680B681A43426062
:100DA000064BCA689A4204D182680B681A43826073
:100DB00003E082680B689A4382607047FFFF00007F
:100DC000704770477047704700BFFEE77047704735
:100DD0007047704770470000002905D0054A126B24
:100DE0000243044B1A6304E0024A126B8243014B34
:100DF0001A63704700000140002905D0054A526B74
:100E00000243044B5A6304E0024A526B8243014B93
:100E10005A6370470000014004490968044A1140C0
:100E2000044A89180143014A1160704700000140DB
:100E30001FFF000000005A5AF8B505460C4616463A
:100E40001F46002000902948006B012149020843F9
:100E500026490863002D06D12548C06903210843AF
:100E60002349C86116E02248C06940084000204973
:100E7000C86108460068012108431D49086008460A
:100E800000694008400008610846C0680121084325
:100E90001749C8601748844201D1032003E016496E
:100EA0002046FFF737F9C0B20090224600231348CE
:100EB0000121FFF745F90102284620221043009A3C
:100EC000920010433043384301430848C1614068F1
:100ED0000B4908430549486000BF0448C069012127
:100EE000C90408408842F8D1F8BD00000000014064
:100EF000001400480048E80100127A000050D6DCD7
:100F000082015A5A70470000F0B58BB007460D4673
:100F10001646002400200A900990254801460EC973
:100F2000C068079306920591089014222049103159
:100F30006846FFF72BF900BF08E0A00005A9085894
:100F4000A84201D90A9403E0601CC4B2042CF4D373
:100F500000BF284670430990002409E0A0006946BC
:100F600009580998814201D9099403E0601CC4B270
:100F7000052CF3D300BF0998400207210903084359
:100F8000310108430A9989000843384309498862B6
:100F900008464068084908430649486000BF0548BC
:100FA000806A0121C90308408842F8D10BB0F0BD26
:100FB000AC1F00000000014004005A5A70B50446FE
:100FC0000C48006880B20C494018C008C00020439B
:100FD0000849086000F012F8054600F07BF8054863
:100FE00000684007400FA04201D0012070BD0020E2
:100FF000FCE700000000014000005A5AF8B5002547
:10100000002700240026002000902D480068470794
:101010007F0F2B4880694004040F2948806A8007AD
:10102000800F00902648806AC005C60E3B0000F085
:10103000E0F905040C130E103400A000214A1158E9
:101040002148FFF767F805462FE0204D2DE0204DA1
:101050002BE00125ED0328E00098002804D00128AA
:1010600003D003280ED104E000BF1848354645439D
:1010700011E0A000134A11581348FFF74BF87043D2
:10108000054608E0A0000F4A11580F48FFF742F844
:101090007043054600BF00BF07E0A000094A115891
:1010A0000948FFF737F8054600BF00BF044800684D
:1010B0000006410F2846C84005462846F8BD0000F6
:1010C000000001406C1F0000006CDC020024F400F2
:1010D00020800000014908607047000000000020E7
:1010E00070477047704770470348006803490978A4
:1010F0004018014908607047040000200C000020DF
:1011000010B50023022210491846FFF795FE002073
:10111000FFF782FE08220C490020FFF7F5FE0121AF
:101120000220FFF759FE0220FFF7AAFD0220FFF779
:1011300045FF0648FFF7CEFF0548064948610020F5
:1011400088610520086110BD00127A000090D0036C
:10115000FFF9000000E000E0014802490860704724
:1011600000127A000000002000B5FFF7F5FF932180
:10117000490209884805400D09498969C90AC90217
:101180000143074A91619321490249888805800DEE
:101190001146096A890A89020143116200BD0000F3
:1011A0000000014010B50421084800F020F8002894
:1011B0000BD0064800F0ECF804462146034800F046
:1011C000EBF80421014800F005F810BD003801409B
:1011D00070477047026A8A43026270470246D069CC
:1011E0000840002801D0012070470020FCE702469B
:1011F000D0690840002801D0012070470020FCE79A
:1012000010B5002A03D083680B43836004E0836831
:10121000CC43A4B22340836010BD0000F0B589B078
:1012200005460C460026002008900027A088A189CA
:101230000843E1890843218A0843618A08432968F1
:10124000514A114008432860E088A18A0843696830
:10125000C3229200914308436860A08800282FD1E0
:1012600021680801FFF794F90790A068FFF790F94B
:1012700006900799FFF732F807463846FFF78FF9CF
:1012800086B23046FFF784F939460190FEF7E5FF54
:101290008321C9050290FEF7E4FF0390FFF7B2F93E
:1012A00000223A4B05910490FFF756F807910690FB
:1012B000FFF78AF980B20890EE600898286160E034
:1012C000A0880121490288421BD12168C800FFF78C
:1012D0005FF90290A068FFF75BF901900299FEF7B1
:1012E000FDFF0390FFF78EF90022284B0591049033
:1012F000FFF732F807910690FFF766F986B2EE60C5
:101300003FE0A0880121890288421BD12168880022
:10131000FFF73EF90290A068FFF73AF901900299B1
:10132000FEF7DCFF0390FFF76DF90022174B0591E4
:101330000490FFF711F807910690FFF745F986B280
:10134000EE601EE02068FFF723F90290A068FFF727
:101350001FF98721C9050090FEF783FF01900299CC
:10136000FEF7BCFF0390FFF74DF90022074B0591F4
:101370000490FEF7F1FF07910690FFF725F986B27A
:10138000EE6009B0F0BD0000C0F8FFFF0000E03FD4
:101390000146486AC0B27047816270477047704723
:1013A000704700000FB410B503A9044B044A02981B
:1013B00000F034F910BC08BC04B01847D91D000077
:1013C000140000202021020C01D010211046020A36
:1013D00001D010460839020901D01046091F8208C1
:1013E00001D01046891E420801D0881E7047081A95
:1013F000704730B47446641E2578641CAB4204D335
:10140000635D5B00E31830BC18471D46F8E7000039
:1014100010B5002819DB1A4A03231B02D2188308CF
:101420009B00D2588307DC0EFF23A3409A438B070F
:101430001B0E8407E40EA3401A43114B032424021D
:101440001B198408A4001A5118E00E4A03071B0F49
:10145000083B9B089B00D2588307DC0EFF23A34068
:101460009A438B071B0E8407E40EA3401A43054BD7
:101470000407240F083CA408A4001A5110BD000062
:1014800000E100E01CED00E002E008C8121F08C106
:10149000002AFAD170477047002001E001C1121FF5
:1014A000002AFBD170470000F0B51FB486B0099840
:1014B000089A030D0021024314D05148514A1818CC
:1014C000504305141198012810981AD0281A401C6E
:1014D00000264D4F4D49009601910490002812DAE4
:1014E000444211E01198012449A3012801D1109828
:1014F000C1430698119A84600360C26041600BB0DA
:10150000F0BD4042E4E70446210500203F4A001CAC
:1015100051410391029012E0E00707D032463B466A
:1015200001990098FEF7CCFF0191009032463B46AE
:1015300010461946FEF7C4FF06460F466410002CFD
:10154000EAD10498039B0028029A0999089806DAC0
:10155000FEF7B6FF019B009AFEF7B2FF05E0FFF72A
:1015600085F9019B009AFFF781F904460E46002297
:10157000284BFFF713FA03D80020C043014607E0C9
:101580000022254B20463146FEF7E6FEFFF7E6F93E
:10159000102409E0002C0ADB0A220023FFF762F87E
:1015A000079B30321A55641E02460A43F2D11122BB
:1015B000641C079B121B1C19119B012B03D00123D8
:1015C00008430ED10AE0084304D0112010900020F7
:1015D000119077E71098151A6D1E0BE01098824253
:1015E00002DD00236D1C03E0824201DA00236D1E40
:1015F000002BEED0069811998260C16030C07EE762
:1016000001FCFFFF104D0000000014400000F03FFF
:10161000300000000000F0430000E03FFFB597B04D
:10162000064600251BE2252876D100242746F749E7
:10163000049400E00443761C32780120203A904064
:101640000842F7D130782A280ED00222307801469D
:101650003039092916D804990A23594330394018DA
:101660001443761C0490F1E7189802C8049118906E
:10167000002904DA01204003044348420490022078
:101680000443761C30782E2814D10420044370784B
:10169000761C2A2809D11898761C80C8189009E071
:1016A0000A214F43303FC719761C30780146303944
:1016B0000929F5D930786C2810D006DC4C281AD0CE
:1016C00068280ED06A2817D104E0742813D07A282D
:1016D00012D110E00120400504430CE0012109056E
:1016E00001E0032109050C437178814203D10120F7
:1016F00000052418761C761C307866280BD013DC85
:1017000058287DD009DC00287BD04528F6D0462813
:10171000F4D047281AD1A9E118E0632835D064280D
:1017200070D0652812D1A1E170286CD008DC672840
:10173000F1D069287DD06E280DD06F2806D1BCE08D
:1017400073282ED0752873D0782859D01A9A1999F1
:1017500090476D1C82E16002400F022809D00328E7
:101760000DD00428189801680DD00D60001D189048
:1017700074E11898EA1701680D604A60F6E7189856
:1017800001680D80F2E70D70F0E718986A4601785D
:101790001172001D18900020507202A800900120C4
:1017A00005E0189802C8189000200091C043610716
:1017B0000ED5002101E00199491C0191B94213DACB
:1017C0008142F8DB019A0099895C0029F3D10BE092
:1017D000002101E00199491C01918142FADB019A43
:1017E0000099895C0029F5D1019904981A9B471A40
:1017F00021463846199A00F099FA4019019903E0F8
:1018000051E030E115E050E0451807E000980099FC
:101810000078491C00911A9A199990470198401E26
:101820000190401CF2D1214638461A9B199A12E1C8
:1018300037E00A200021009001916002410F022947
:1018400007D0189A01CA1892C2179446032908D0E3
:101850000AE01898C01DC108C90005C9189194462E
:1018600007E000B2C2179446042902D140B2C11762
:101870008C4600226146944506DA0A460021404221
:1018800091418C462D2102E0210504D52B216A4689
:101890001173012103E0E10701D02021F7E7029154
:1018A00056E00A200AE0102008E0102000900021F5
:1018B000042004430191082703E00820002101913E
:1018C00000906002410F022907D0189A01CA1892AD
:1018D00000229446032908D008E01898C01DC108CA
:1018E000C90005C91891944603E080B2042900D1CB
:1018F000C0B20021029121072AD531780D917029BB
:1019000006D0009A1021019B4A401A4305D00EE0F0
:1019100040216A461173012108E06146014306D067
:1019200030216A4611730D99517302210291009A78
:101930000821019B4A401A430AD16146014301D163
:10194000610705D530216A46117301217F1E02917E
:101950003178582904D02EA10E910DA90D910DE0DA
:1019600030A1F9E76146019B009AFEF77BFE0E9BD2
:101970008C469B5C0D9A521E0D921370614601437A
:10198000F0D10D9805A9081A20300190600703D501
:1019900001200004844300E001270198874201DD13
:1019A000381A00E0002001990090411802980918A7
:1019B0000498401A0490E00306D421461A9B199A11
:1019C000049800F0B3F94519002706E003A81A9A15
:1019D000C05D199990476D1C7F1C02988742F5DB0A
:1019E000E0030CD521461A9B199A049800F09EF941
:1019F000451904E01A9A3020199990476D1C0099F6
:101A0000481E00900029F5DC1FE0000009280100B5
:101A10003031323334353637383961626364656664
:101A20000000000030313233343536373839414226
:101A300043444546000000000D980D990078491C6C
:101A40000D911A9A199990476D1C0199481E0190A1
:101A50000029F1DC4DE100F059F94519761C307888
:101A6000002800D0DFE528461BB0F0BD600700D499
:101A700006271898C01DC108C90048680A680831BF
:101A8000C30FDB071891190001D09CA108E02105C4
:101A900001D59BA104E0E10701D09AA100E09AA141
:101AA0004300109130785B0865280CD006DC45288F
:101AB00009D046281DD0472841D141E0662818D0DA
:101AC00067283CD13CE00021112F01DB112000E010
:101AD000781C0191009008A911A8FFF7E5FC139963
:101AE00005910021119A15927F1C1298019700917F
:101AF00050E00120C00703900120019008A9009741
:101B000011A8FFF7D1FC139A149905920022119B9A
:101B1000009212981593059A0192002901D010465F
:101B200002E0791C40180190381A01D5019804E0B0
:101B30004042401E0090781C0190C01B029043E080
:101B4000012F00DA01270021112F01DD112000E013
:101B500038460191009008A911A8FFF7A5FC139938
:101B60000591119A00211298159200910197210771
:101B70000CD40599B94201DB019900E001910129DA
:101B800004DD159A491E515C302906D0B84201DAAD
:101B9000011D05DA0121029115E00199491EEDE7C9
:101BA000002805DC0099411800910199091A03E009
:101BB000019A411C914200DD01910099401A401C9C
:101BC00002900120C0070390200706D402990198D3
:101BD000814202DB0020C043029000206946C877A2
:101BE00007AF012103980337C907884224D0022098
:101BF00011902B201290039800280CDA4042039099
:101C00002D20129007E00A210398FEF783FA303165
:101C10007F1E039039701199481E11900029F2DC43
:101C200003980028EFD1791E12980870307820218F
:101C300008404530BF1E387006A8C01BC01D039069
:101C400010980078002800D00120019941180298CE
:101C5000C0170918039809180498401A401E0490E8
:101C6000E00306D421461A9B199A049800F05EF806
:101C7000451910980078002803D01A9A19999047AE
:101C80006D1CE00324D521461A9B199A049800F094
:101C90004DF845191CE00098002807DB00990598CD
:101CA000884203DD1598405C199901E019993020AC
:101CB0001A9A904700986D1C401C00900298401E94
:101CC0000290002804D11A9A2E20199990476D1C71
:101CD0000199481E01900029DDDC05E038781A9A48
:101CE0007F1C199990476D1C0399481E0390002989
:101CF000F4DC21461A9B199A0498ACE62D000000EA
:101D00002B0000002000000000000000F8B5044691
:101D100000251E461746880404D405E039462020D5
:101D2000B0476D1C641EF9D52846F8BDFFB50446C2
:101D3000002581B01E46C80301D5302700E02027CA
:101D4000880404D505E038460399B0476D1C641E2D
:101D5000F9D5284605B0F0BDF8B5044600250026A3
:101D60000BE0FEF773FE0746002F02D1601EC4B2DF
:101D700001E0ED1900BF701CC6B2A642F1DB21469E
:101D80002846FEF7C7F9F8BD10B504467D21C90005
:101D90006143084600F002F810BD000030B503466C
:101DA00026229C010B4DA96911E00A4DA8698842C1
:101DB0000DD0884202D20D1AAA1804E0054D6D69B3
:101DC0002D1A6D18AA180146A24200D300E0ECE7D4
:101DD00000BF30BD00E000E070B504460D46E1B242
:101DE0000548FFF7D9FA00BF01210348FFF7F6F9CC
:101DF0000028F9D0204670BD003801400EB5FFF72D
:101E00007FF900F04DF8FEF7FBFE2DE00A20FFF70A
:101E1000A3FF0090FEF7BCFB8B21C9050190FEF7E4
:101E20005DFA0290FEF7EEFB0446104A104BFEF7F7
:101E300047FB0646FEF7FAFB0E49086008460068B5
:101E4000FEF7E0FB044622460B460BA0FFF7AAFA7A
:101E50000A20FFF781FF044621460DA0FFF7A2FAF2
:101E60007D200001FFF790FFD0E700006666666600
:101E700066660A4010000020414443205265737595
:101E80006C743A20252E326620560D0A00000000A0
:101E90004144432056616C75653A2025640D0A0063
:101EA00000B58BB001211020FEF796FF01214802FA
:101EB000FEF7A2FF0920C006406900090001801C4E
:101EC0000921C906486108464069F021884320304D
:101ED0000921C9064861FF200130079020200890A1
:101EE0001E480A9007A90920C006FEF7E9FE012056
:101EF000400207901120089007A90920C006FEF7AC
:101F0000DFFEE1204002019000216846018141810D
:101F10001348039068460182418281820183032134
:101F2000C18201A90F48FFF779F900211B20FFF7B3
:101F30006FFA1B20002809DB00BF00BFC206D20ECB
:101F400001219140084A116000BF00BF00BF01227B
:101F500004210448FFF754F90BB000BDFFFF000057
:101F60000090D0030038014000E100E006000000CE
:101F70000600000006000000060000000600000049
:101F80000600000001000000030000000200000045
:101F90000400000006000000080000000A00000025
:101FA0000C0000000E00000010000000808D5B009F
:101FB000001BB700002D310101366E0180A812010F
:101FC00000366E0100512502006CDC0201A24A04B9
:101FD000F01F00000000002018000000881400001E
:101FE00008200000180000200002000098140000E3
:101FF00000127A0000000000040000000100000050
:082000000000000000000000D8
:04000005000000C136
:00000001FF
