:020000040000FA
:1000000010020020D9000000CD0200008D02000087
:1000100000000000000000000000000000000000E0
:10002000000000000000000000000000F9020000D5
:100030000000000000000000CF020000FD020000F0
:100040006B03000095020000F30200006F01000046
:10005000F102000071010000730100007501000051
:100060007701000045010000470100004901000040
:10007000390100003B010000670300006903000034
:100080008502000087020000890200008B02000048
:100090003F01000041010000430100009102000007
:1000A00093020000F5020000F70200006103000067
:1000B00063030000650300003D0100006D010000C6
:1000C0000448854600F026F8004800478D030000EC
:1000D000C046C0461002002009480A4A002100A17B
:1000E000814200D902440848026008488047084815
:1000F0000047FEE7FEE7FEE7FEE7FEE7FEE700005B
:10010000000000200000000008ED00E025030000D2
:10011000C1000000064C0125064E05E0E36807CC4F
:100120002B430C3C98471034B442F7D3FFF7CCFF75
:10013000C0030000E003000070477047704770473D
:100140007047704770477047704708B509E07D21D8
:10015000C900009100BF00994A1E00920029FAD1FF
:1001600000BF0146401E0029F1D108BD704770470D
:1001700070477047704770474A68002A04D1C269C7
:100180000B681A43C26174E0C2690B689A43C2618A
:1001900010234A681A40102A4ED102680B681A438D
:1001A00002604A68112A07D102690B681A4302618A
:1001B000C2680B689A43C2604A68122A07D1C268B3
:1001C0000B681A43C26002690B689A430261426A73
:1001D0000B689A434262826A0B689A438262C26ADF
:1001E0000B689A43C262026B0B689A4302638123D5
:1001F0008A681A40812A03D1426A0B681A43426214
:1002000082238A681A40822A03D1826A0B681A43C1
:10021000826284238A681A40842A03D1C26A0B68E6
:100220001A43C26288238A681A40882A21D1026B45
:100230000B681A4302631CE002680B689A43026071
:100240004A68202A04D142680B689A43426003E05E
:1002500042680B681A434260064BCA689A4204D14E
:1002600082680B681A43826003E082680B689A43D5
:1002700082607047FFFF0000012A01D1C16500E0E4
:1002800081657047704770477047704700BFFEE751
:1002900070477047704700001FB50121402000F0F3
:1002A00017F801204003009020200190054803909A
:1002B00069460548FFF760FF012251030248FFF736
:1002C000DBFF1FBDFFFF00000008004870477047BC
:1002D000002905D0054A126B0243044B1A6304E05F
:1002E000024A126B8243014B1A63704700000140BF
:1002F00070477047704770477047000003480068B8
:10030000034909784018014908607047040000203B
:100310000C000020014802490860704700127A0072
:100320000000002000B5FFF7F5FF9321490209887E
:100330004805400D09498969C90AC9020143074AAC
:1003400091619321490249888805800D1146096A07
:10035000890A89020143116200BD000000000140CA
:1003600070477047704770477047704702E008C891
:10037000121F08C1002AFAD170477047002001E01F
:1003800001C1121F002AFBD170470000FFF784FF54
:1003900012E00022012149030848FFF76DFF7D208C
:1003A000C000FFF7D2FE012251030448FFF764FFAB
:1003B0007D20C000FFF7C9FEEBE700000008004801
:1003C000E003000000000020100000006C030000AB
:1003D000F003000010000020000200007C03000079
:1003E00000127A000000000004000000010000007C
:04000005000000C136
:00000001FF
