:020000040000FA
:10000000700400209D0100005B0500005105000008
:1000100000000000000000000000000000000000E0
:1000200000000000000000000000000003080000C5
:1000300000000000000000005D0500000508000051
:100040007308000059050000FD070000CF03000001
:1000500001060000F5030000F7030000F9030000AB
:10006000FB030000C7030000C9030000CB0300002E
:10007000BB030000BD0300006F0800007108000012
:10008000490500004B0500004D0500004F0500002C
:10009000C1030000C3030000C503000055050000B4
:1000A00057050000FF070000010800006908000074
:1000B0006B0800006D080000BF030000CD030000C6
:1000C00000F002F800F03EF80CA030C80838241800
:1000D0002D18A246671EAB4654465D46AC4201D180
:1000E00000F030F87E460F3E0FCCB6460126334274
:1000F00000D0FB1AA246AB46334318473008000035
:1001000050080000103A02D378C878C1FAD85207D4
:1001100001D330C830C101D504680C6070470000BD
:100120000023002400250026103A01D378C1FBD813
:10013000520700D330C100D50B6070471FB51FBDFB
:1001400010B510BD00F006F91146FFF7F7FF00F0FB
:100150009FFB00F01EF903B4FFF7F2FF03BC00F0B1
:1001600025F9000070B505460C46164602E00FCC96
:100170000FC5103E102EFAD2082E02D303CC03C5B1
:10018000083E042E07D301CC01C5361F03E02178B9
:100190002970641C6D1C761EF9D270BD0C480D4A86
:1001A000002100A1814200D902440B4802600B48A3
:1001B00080470B480047FEE7FEE7FEE7FEE7FEE765
:1001C000FEE7000007480849084A094B704700004D
:1001D000000000200000000008ED00E02D080000F5
:1001E000C100000070000020700400207002002098
:1001F00070020020002203098B422CD3030A8B4299
:1002000011D300239C464EE003460B433CD400220E
:1002100043088B4231D303098B421CD3030A8B4220
:1002200001D394463FE0C3098B4201D3CB01C01AEE
:10023000524183098B4201D38B01C01A52414309B9
:100240008B4201D34B01C01A524103098B4201D3A7
:100250000B01C01A5241C3088B4201D3CB00C01A14
:10026000524183088B4201D38B00C01A524143088C
:100270008B4201D34B00C01A5241411A00D20146B1
:100280005241104670475DE0CA0F00D0494203104A
:1002900000D34042534000229C4603098B422DD399
:1002A000030A8B4212D3FC22890112BA030A8B4241
:1002B0000CD3890192118B4208D3890192118B4290
:1002C00004D389013AD0921100E08909C3098B4215
:1002D00001D3CB01C01A524183098B4201D38B0158
:1002E000C01A524143098B4201D34B01C01A5241FB
:1002F00003098B4201D30B01C01A5241C3088B4240
:1003000001D3CB00C01A524183088B4201D38B002A
:10031000C01A5241D9D243088B4201D34B00C01AB4
:100320005241411A00D20146634652415B101046C9
:1003300001D34042002B00D54942704763465B1011
:1003400000D3404201B50020C046C04602BD704700
:1003500070477047754600F025F8AE4605006946BF
:100360005346C008C000854618B020B5FFF72AFFE5
:1003700060BC00274908B6460026C0C5C0C5C0C538
:10038000C0C5C0C5C0C5C0C5C0C5403D49008D463B
:10039000704710B50446C046C0462046FFF7DBFE56
:1003A00010BD0000004870471000002001491820CF
:1003B000ABBEFEE7260002007047704770477047EB
:1003C0007047704770477047704770477047704775
:1003D000002804D00822024310231A4300E0002220
:1003E0001146024A0A43024B5A60704700005A5AAB
:1003F0000020024070477047704770471FB50C4897
:10040000006B202108430A490863802002902020C5
:10041000019008200090074803906946064800F0C4
:100420000DF800220821044800F088F81FBD0000E4
:1004300000000140FFFF0000000400484A68002A55
:1004400004D1C2690B681A43C26174E0C2690B68C7
:100450009A43C26110234A681A40102A4ED102689A
:100460000B681A4302604A68112A07D102690B68B7
:100470001A430261C2680B689A43C2604A68122A32
:1004800007D1C2680B681A43C26002690B689A43BD
:100490000261426A0B689A434262826A0B689A431D
:1004A0008262C26A0B689A43C262026B0B689A430B
:1004B000026381238A681A40812A03D1426A0B6849
:1004C0001A43426282238A681A40822A03D1826ACE
:1004D0000B681A43826284238A681A40842A03D1F3
:1004E000C26A0B681A43C26288238A681A40882A43
:1004F00021D1026B0B681A4302631CE002680B688F
:100500009A4302604A68202A04D142680B689A43E1
:10051000426003E042680B681A434260064BCA68B7
:100520009A4204D182680B681A43826003E08268B1
:100530000B689A4382607047FFFF0000012A01D1D7
:10054000C16500E08165704770477047704770472C
:1005500000BFFEE770477047704770477047000064
:1005600010B5052000F032F8002000F01FF8002040
:1005700000F048F808220A49032000F053F809481F
:10058000006B02210843074908630220FFF720FFA0
:10059000022000F0A1F8044800F02AF910BD000084
:1005A00000127A00000001400090D003044909685D
:1005B000044A1140044A89180143014A11607047F6
:1005C000000001401FFF000000005A5AC1029322A0
:1005D000520212881143084A916111464968074A3C
:1005E0001143054A516000BF034989690122D203C2
:1005F00011409142F8D170470000014001005A5A61
:100600007047000004490968044A1140044A8918E7
:100610000143014A1160704700000140E7FF0000FC
:1006200000005A5AF0B58BB007460D461646002416
:1006300000200A900990254801460EC9C06807931A
:100640000692059108901422204910316846FFF760
:1006500089FD00BF08E0A00005A90858A84201D9FB
:100660000A9403E0601CC4B2042CF4D300BF2846F3
:1006700070430990002409E0A000694609580998D0
:10068000814201D9099403E0601CC4B2052CF3D364
:1006900000BF0998400207210903084331010843BC
:1006A0000A99890008433843094988620846406826
:1006B000084908430649486000BF0548806A01218F
:1006C000C90308408842F8D10BB0F0BD080900000A
:1006D0000000014004005A5A70B504460C480068F6
:1006E00080B20C494018C008C00020430849086087
:1006F00000F012F8054600F07BF805480068400756
:10070000400FA04201D0012070BD0020FCE7000096
:100710000000014000005A5AF8B5002500270024C7
:100720000026002000902D48006847077F0F2B48C7
:1007300080694004040F2948806A8007800F009078
:100740002648806AC005C60E3B0000F093F80504F9
:100750000C130E103400A000214A11582148FFF755
:1007600049FD05462FE0204D2DE0204D2BE00125D1
:10077000ED0328E00098002804D0012803D00328C6
:100780000ED104E000BF18483546454311E0A000F3
:10079000134A11581348FFF72DFD7043054608E032
:1007A000A0000F4A11580F48FFF724FD704305467B
:1007B00000BF00BF07E0A000094A11580948FFF731
:1007C00019FD054600BF00BF044800680006410F40
:1007D0002846C84005462846F8BD000000000140F4
:1007E000C8080000006CDC020024F4002080000037
:1007F00001490860704700000C00002070477047F6
:100800007047704703480068034909784018014958
:1008100008607047000000200800002001480249DD
:100820000860704700127A000C00002000B5FFF746
:10083000F5FF9321490209884805400D0949896956
:10084000C90AC9020143074A9161932149024988B3
:100850008805800D1146096A890A890201431162DF
:1008600000BD0000000001407047704770477047AE
:100870007047704730B47446641E2578641CAB42E0
:1008800004D3635D5B00E31830BC18471D46F8E7EE
:10089000FFF766FEFFF7B2FD11E008200849C861C6
:1008A000002400E0641C07488442FBD3082004496C
:1008B0008861002400E0641C02488442FBD3ECE71A
:1008C0004004004840420F000600000006000000FF
:1008D0000600000006000000060000000600000000
:1008E00001000000030000000200000004000000FE
:1008F00006000000080000000A0000000C000000D4
:100900000E00000010000000808D5B00001BB7008F
:10091000002D310101366E0180A8120100366E01F2
:1009200000512502006CDC0201A24A044C090000BF
:100930000000002010000000040100005C0900001D
:1009400010000020600400002001000000000000F2
:0C095000040000000100000000127A000A
:04000005000000C136
:00000001FF
