:020000040000FA
:1000000010020020D9000000690100005F0100001B
:1000100000000000000000000000000000000000E0
:10002000000000000000000000000000750100005A
:1000300000000000000000006B01000079010000DA
:10004000E7010000670100006F0100004D010000A2
:100050006D0100004F01000051010000530100003C
:100060005501000045010000470100004901000062
:10007000390100003B010000E3010000E501000040
:1000800057010000590100005B0100005D01000004
:100090003F01000041010000430100006301000036
:1000A000650100007101000073010000DD01000026
:1000B000DF010000E10100003D0100004B010000F4
:1000C0000448854600F026F8004800470902000071
:1000D000C046C0461002002009480A4A002100A17B
:1000E000814200D902440848026008488047084815
:1000F0000047FEE7FEE7FEE7FEE7FEE7FEE700005B
:10010000000000200000000008ED00E0A101000058
:10011000C1000000064C0125064E05E0E36807CC4F
:100120002B430C3C98471034B442F7D3FFF7CCFF75
:100130007C0200009C0200007047704770477047C7
:1001400070477047704770477047704770477047F7
:10015000704770477047704770477047704700BFDF
:10016000FEE77047704770477047704770477047A9
:1001700070477047704700000348006803490978DA
:100180004018014908607047040000200C0000205E
:10019000014802490860704700127A000000002000
:1001A00000B5FFF7F5FF9321490209884805400D86
:1001B00009498969C90AC9020143074A9161932122
:1001C000490249888805800D1146096A890A890211
:1001D0000143116200BD00000000014070477047FC
:1001E000704770477047704702E008C8121F08C187
:1001F000002AFAD170477047002001E001C1121FA8
:10020000002AFBD1704700001A48008A40210843A9
:10021000184908821848808B4914884316498883F6
:10022000084600880121490388431349088008468D
:1002300080880121490388430F4988800E48203077
:1002400000880121490388430B49203108800A486E
:1002500000890121490308430749088106484030C5
:10026000808A01214903084303494031888200BF45
:10027000FEE7000020000140000800489C0200004A
:100280000000002010000000E8010000AC020000A7
:100290001000002000020000F801000000127A00A7
:0C02A0000000000004000000010000004D
:04000005000000C136
:00000001FF
