:020000040000FA
:1000000028020020D90000000B04000001040000B9
:1000100000000000000000000000000000000000E0
:10002000000000000000000000000000E9080000DF
:1000300000000000000000000D040000ED080000BA
:10004000F90900000904000061060000A90200008F
:1000500065040000E5020000E7020000E90200007C
:10006000EB020000A1020000A3020000A5020000B4
:10007000890100008B010000F5090000F70900006C
:10008000F9030000FB030000FD030000FF03000074
:1000900091010000CD010000CF0100000504000027
:1000A00007040000E5080000E7080000FD0000006C
:1000B000F1090000F30900008D010000A702000013
:1000C0000448854600F04EF800480047850A0000C5
:1000D000C046C0462802002009480A4A002100A163
:1000E000814200D902440848026008488047084815
:1000F0000047FEE7FEE7FEE7FEE7FEE7FEE700005B
:10010000000000200000000008ED00E0750900007C
:10011000C100000030B50B4601460020202201241A
:1001200009E00D46D5409D4205D31D469540491B2B
:100130002546954040191546521E002DF1DC30BD74
:1001400003460B439B0703D009E008C9121F08C0F0
:10015000042AFAD203E00B780370401C491C521E9B
:10016000F9D27047064C0125064E05E0E36807CC3E
:100170002B430C3C98471034B442F7D3FFF7A4FF4D
:100180001C0B00003C0B00007047704770470000DC
:1001900010B501210B4800F02BF8002810D00121E8
:1001A000084800F015F808480068401C0649086037
:1001B00008460068022803D90020086000F076FB9A
:1001C00010BD00000048014010000020704770473B
:1001D000C2698A43C2617047002904D002690123C1
:1001E0001A43026103E0026952085200026170473B
:1001F000024690690840002801D001207047002085
:10020000FCE7002A03D043690B43436102E04369E2
:100210008B4343617047000010B54A880B881A432E
:10022000CB881A430369034C23401A4302618A882E
:10023000026010BD59F8FFFF1CB51548406B012145
:1002400009030843124948631420002809DB00BF52
:1002500000BFC206D20E012191400E4A116000BFBC
:1002600000BF00BF0021684641800B49818000210A
:10027000018069460948FFF7CFFF01221146074870
:10028000FFF7BFFF01210548FFF7A6FF1CBD0000D7
:100290000000014000E100E03F1F00000048014075
:1002A0007047704770477047704700000A4A126BEA
:1002B00002239A43921C084B1A63002804D0082298
:1002C000024310231A4300E000221146034A0A4366
:1002D000034B5A60704700000000014000005A5A6A
:1002E0000020024070477047704770474A68002AF4
:1002F00004D1C2690B681A43C26174E0C2690B6819
:100300009A43C26110234A681A40102A4ED10268EB
:100310000B681A4302604A68112A07D102690B6808
:100320001A430261C2680B689A43C2604A68122A83
:1003300007D1C2680B681A43C26002690B689A430E
:100340000261426A0B689A434262826A0B689A436E
:100350008262C26A0B689A43C262026B0B689A435C
:10036000026381238A681A40812A03D1426A0B689A
:100370001A43426282238A681A40822A03D1826A1F
:100380000B681A43826284238A681A40842A03D144
:10039000C26A0B681A43C26288238A681A40882A94
:1003A00021D1026B0B681A4302631CE002680B68E0
:1003B0009A4302604A68202A04D142680B689A4333
:1003C000426003E042680B681A434260064BCA6809
:1003D0009A4204D182680B681A43826003E0826803
:1003E0000B689A4382607047FFFF0000012A01D129
:1003F000C16500E08165704770477047704770477E
:1004000000BFFEE7704770477047704770470000B5
:1004100004490968044A1140044A89180143014A01
:1004200011607047000001401FFF000000005A5A91
:10043000C1029322520212881143084A9161114667
:100440004968074A1143054A516000BF0349896959
:100450000122D20311409142F8D1704700000140BF
:1004600001005A5A7047000004490968044A1140C3
:10047000044A89180143014A116070470000014095
:10048000E7FF000000005A5AF0B58BB007460D4652
:100490001646002400200A900990254801460EC9FE
:1004A000C0680793069205910890142220491031E4
:1004B0006846FFF745FE00BF08E0A00005A9085800
:1004C000A84201D90A9403E0601CC4B2042CF4D3FE
:1004D00000BF284670430990002409E0A000694647
:1004E00009580998814201D9099403E0601CC4B2FB
:1004F000052CF3D300BF09984002072109030843E4
:10050000310108430A998900084338430949886240
:1005100008464068084908430649486000BF054846
:10052000806A0121C90308408842F8D10BB0F0BDB0
:10053000F80A00000000014004005A5A70B5044651
:100540000C48006880B20C494018C008C000204325
:100550000849086000F012F8054600F07BF80548ED
:1005600000684007400FA04201D0012070BD00206C
:10057000FCE700000000014000005A5AF8B50025D1
:10058000002700240026002000902D48006847071F
:100590007F0F2B4880694004040F2948806A800738
:1005A000800F00902648806AC005C60E3B0000F010
:1005B00024FA05040C130E103400A000214A11582F
:1005C0002148FFF7A7FD05462FE0204D2DE0204DE7
:1005D0002BE00125ED0328E00098002804D0012835
:1005E00003D003280ED104E000BF18483546454328
:1005F00011E0A000134A11581348FFF78BFD704318
:10060000054608E0A0000F4A11580F48FFF782FD89
:100610007043054600BF00BF07E0A000094A11581B
:100620000948FFF777FD054600BF00BF0448006892
:100630000006410F2846C84005462846F8BD000080
:1006400000000140B80A0000006CDC020024F40045
:100650002080000001490860704700000000002071
:100660007047000010B5012211020920C006FFF7F3
:10067000BDFE0122D1020920C006FFF7B7FE01220C
:1006800011030920C006FFF7B1FE0122D1030920A2
:10069000C006FFF7ABFE012208210448FFF7A6FEC3
:1006A000012210210148FFF7A1FE10BD00040048FF
:1006B000F8B506460F465348C55D00245AE02300AE
:1006C00000F09BF908050F19232D37414B5528469B
:1006D0002041C207D20F04210920C006FFF786FE81
:1006E00046E028462041C207D20F01210920C0065A
:1006F000FFF77CFE3CE028462041C207D20F1021C4
:100700000920C006FFF772FE32E028462041C207EA
:10071000D20F40210920C006FFF768FE28E02846D6
:100720002041C207D20F80210920C006FFF75EFEDC
:100730001EE028462041C207D20F02210920C00630
:10074000FFF754FE14E028462041C207D20F0821CB
:100750000920C006FFF74AFE0AE028462041C207EA
:10076000D20F20210920C006FFF740FE00E000BFA5
:1007700000BF641C082CA2DB012E04D0022E16D070
:10078000032E3CD127E00022FF2101310920C006C1
:10079000FFF72CFE0122D1020920C006FFF726FE3A
:1007A000012211030920C006FFF720FE28E00122E4
:1007B00011020920C006FFF719FE00220121C9021B
:1007C0000920C006FFF712FE012211030920C0060E
:1007D000FFF70CFE14E0012211020920C006FFF70A
:1007E00005FE0122D1020920C006FFF7FFFD00220D
:1007F000012109030920C006FFF7F8FD00E000BF52
:1008000000BFF8BD140000201FB52448006B102164
:100810000843224908630846006B202108431F490A
:1008200008631F48009020200190802002901D48FE
:10083000039069460920C006FFF758FD1820009074
:1008400020200190802002901648039069461648A7
:10085000FFF74CFD012211020920C006FFF7C6FD7B
:100860000122D1020920C006FFF7C0FD01221103B9
:100870000920C006FFF7BAFD0122D1030920C006F6
:10088000FFF7B4FD012208210748FFF7AFFD012261
:1008900010210548FFF7AAFD1FBD00000000014020
:1008A000FF990000FFFF00000004004810B5FFF7AB
:1008B000D9FE0A480078401E094A115C07480078B2
:1008C000FFF7F6FE05480078401C0449087008460A
:1008D0000078032801DD0120087010BD27000020EA
:1008E00024000020704770477047000003480068EC
:1008F0000349097840180149086070470400002046
:100900000C00002010B50520FFF792FD0020FFF736
:100910007FFD0020FFF7A8FD08220D490320FFF707
:10092000B3FD0C48006B022108430A49086302200A
:10093000FFF7BCFC0220FFF701FE0748FFF78AFE25
:10094000064807494861002088610520086110BDFC
:1009500000127A00000001400090D003FFF900006F
:1009600000E000E0014802490860704700127A0088
:100970000000002000B5FFF7F5FF93214902098828
:100980004805400D09498969C90AC9020143074A56
:1009900091619321490249888805800D1146096AB1
:1009A000890A89020143116200BD00000000014074
:1009B000F8B5044664212046FFF7ACFB0A210090FD
:1009C000FFF7A8FB0D460A212046FFF7A3FB0A21EB
:1009D0000090FFF79FFB0E460A212046FFF79AFB87
:1009E0000F460248057046708770F8BD240000204D
:1009F0007047704770477047704730B47446641E44
:100A00002578641CAB4204D3635D5B00E31830BC03
:100A100018471D46F8E702E008C8121F08C1002A5F
:100A2000FAD170477047002001E001C1121F002A6F
:100A3000FBD1704710B504467D21C90061430846CB
:100A400000F002F810BD000030B5034626229C01DC
:100A50000B4DA96911E00A4DA86988420DD0884262
:100A600002D20D1AAA1804E0054D6D692D1A6D18F1
:100A7000AA180146A24200D300E0ECE700BF30BD57
:100A800000E000E0FFF73EFFFFF7BEFEFFF7D4FBFC
:100A90000CE00748FFF78CFF0648FFF7CBFFFF206D
:100AA0004E30FFF785FF0348FFF7C4FFF1E7000072
:100AB0009A020000881300000600000006000000F3
:100AC000060000000600000006000000060000000E
:100AD000010000000300000002000000040000000C
:100AE00006000000080000000A0000000C000000E2
:100AF0000E00000010000000808D5B00001BB7009E
:100B0000002D310101366E0180A8120100366E0100
:100B100000512502006CDC0201A24A043C0B0000DB
:100B20000000002028000000160A0000640B0000EE
:100B30002800002000020000260A000000127A00AF
:100B400000000000040000000100000000000000A0
:100B50003F065B4F666D7D077F6F777C395E7971ED
:040B60000000000091
:04000005000000C136
:00000001FF
