:020000040000FA
:1000000010020020D9000000770200006D020000FD
:1000100000000000000000000000000000000000E0
:10002000000000000000000000000000A502000029
:10003000000000000000000079020000A90200009A
:1000400017030000750200009F0200004D01000030
:100050009D0200004F01000051010000530100000B
:100060005501000045010000470100004901000062
:10007000390100003B0100001303000015030000DC
:100080006502000067020000690200006B020000C8
:100090003F01000041010000430100007102000027
:1000A00073020000A1020000A30200000D03000083
:1000B0000F030000110300003D0100004B01000090
:1000C0000448854600F026F8004800473903000040
:1000D000C046C0461002002009480A4A002100A17B
:1000E000814200D902440848026008488047084815
:1000F0000047FEE7FEE7FEE7FEE7FEE7FEE700005B
:10010000000000200000000008ED00E0D102000027
:10011000C1000000064C0125064E05E0E36807CC4F
:100120002B430C3C98471034B442F7D3FFF7CCFF75
:1001300070030000900300007047704770477047DD
:1001400070477047704770477047704770477047F7
:1001500070477047704700004A68002A04D1C2699E
:100160000B681A43C26174E0C2690B689A43C261AA
:1001700010234A681A40102A4ED102680B681A43AD
:1001800002604A68112A07D102690B681A430261AA
:10019000C2680B689A43C2604A68122A07D1C268D3
:1001A0000B681A43C26002690B689A430261426A93
:1001B0000B689A434262826A0B689A438262C26AFF
:1001C0000B689A43C262026B0B689A4302638123F5
:1001D0008A681A40812A03D1426A0B681A43426234
:1001E00082238A681A40822A03D1826A0B681A43E2
:1001F000826284238A681A40842A03D1C26A0B6807
:100200001A43C26288238A681A40882A21D1026B65
:100210000B681A4302631CE002680B689A43026091
:100220004A68202A04D142680B689A43426003E07E
:1002300042680B681A434260064BCA689A4204D16E
:1002400082680B681A43826003E082680B689A43F5
:1002500082607047FFFF0000012A01D1C16500E004
:1002600081657047704770477047704700BFFEE771
:10027000704770477047704770470000002905D0ED
:10028000054A126B0243044B1A6304E0024A126BE4
:100290008243014B1A63704700000140704770476A
:1002A00070477047704700000348006803490978A9
:1002B0004018014908607047040000200C0000202D
:1002C000014802490860704700127A0000000020CF
:1002D00000B5FFF7F5FF9321490209884805400D55
:1002E00009498969C90AC9020143074A91619321F1
:1002F000490249888805800D1146096A890A8902E0
:100300000143116200BD00000000014070477047CA
:10031000704770477047704702E008C8121F08C155
:10032000002AFAD170477047002001E001C1121F76
:10033000002AFBD1704700001FB501214020FFF7C4
:100340009DFF01204003009020200190064803906B
:1003500069460648FFF700FF012251030348FFF7F3
:100360007BFF00BFFEE70000FFFF00000008004821
:10037000900300000000002010000000180300009F
:10038000A00300001000002000020000280300006D
:1003900000127A00000000000400000001000000CC
:04000005000000C136
:00000001FF
