:020000040000FA
:1000000010020020D9000000C10400006D040000AF
:1000100000000000000000000000000000000000E0
:10002000000000000000000000000000B307000016
:100030000000000000000000C3040000B50700003D
:100040005B09000075040000AD0700008D02000090
:10005000D1050000C9020000CB020000CD02000063
:10006000CF02000085020000870200008902000024
:10007000790200007B0200005709000059090000C6
:10008000DD030000DF030000E1030000E3030000E4
:100090007F02000081020000830200007104000062
:1000A00073040000AF070000B10700000109000061
:1000B0002D0900002F0900007D0200008B020000C6
:1000C0000448854600F0C6F800480047970900003C
:1000D000C046C0461002002009480A4A002100A17B
:1000E000814200D902440848026008488047084815
:1000F0000047FEE7FEE7FEE7FEE7FEE7FEE700005B
:10010000000000200000000008ED00E035080000BD
:10011000C100000030B50B4601460020202201241A
:1001200009E00D46D5409D4205D31D469540491B2B
:100130002546954040191546521E002DF1DC30BD74
:10014000F8B500242546002904DA0E4601240021D2
:100150004042B141002B04DA1E46002352420125E1
:10016000B34100F025F88C4617461E46AC4203D03A
:10017000002540428D41AC46002C02D0002657425B
:100180009E4161463A46334601B0F0BD03460B43FB
:100190009B0703D009E008C9121F08C0042AFAD23D
:1001A00003E00B780370401C491C521EF9D27047C3
:1001B000F0B51FB40646002082B0054640240191E8
:1001C00000901BE0019922460F46304600F030F8BF
:1001D000049A059B801A994110D31046194622466D
:1001E00000F016F8361A8F410197224601200021AF
:1001F000009F00F00DF838184D4100902046641E15
:100200000028DFDC019B00982946324607B0F0BD8C
:1002100010B5202A04DB0146203A9140002010BD91
:10022000914020239C1A0346E3401943904010BD9F
:1002300010B5202A04DB0846203AD040002110BD2A
:100240000B46D340D0402024A21A914008431946BF
:1002500010BD0000064C0125064E05E0E36807CC02
:100260002B430C3C98471034B442F7D3FFF72CFFD4
:100270000C0A00002C0A0000704770477047704756
:10028000704770477047704770477047704700006D
:100290000A4A126B02239A43921C084B1A630028E5
:1002A00004D00822024310231A4300E00022114622
:1002B000034A0A43034B5A607047000000000140A4
:1002C00000005A5A0020024070477047704770473C
:1002D0004A68002A04D1C2690B681A43C26174E0FB
:1002E000C2690B689A43C26110234A681A40102AF7
:1002F0004ED102680B681A4302604A68112A07D17E
:1003000002690B681A430261C2680B689A43C260B3
:100310004A68122A07D1C2680B681A43C260026990
:100320000B689A430261426A0B689A434262826A8E
:100330000B689A438262C26A0B689A43C262026B7C
:100340000B689A43026381238A681A40812A03D189
:10035000426A0B681A43426282238A681A40822AE0
:1003600003D1826A0B681A43826284238A681A4026
:10037000842A03D1C26A0B681A43C26288238A683E
:100380001A40882A21D1026B0B681A4302631CE0D1
:1003900002680B689A4302604A68202A04D14268C6
:1003A0000B689A43426003E042680B681A4342605C
:1003B000064BCA689A4204D182680B681A4382606D
:1003C00003E082680B689A4382607047FFFF000079
:1003D000012A01D1C16500E081657047704770470F
:1003E00070477047032212028218126952085200A5
:1003F000CB07DB0F1A4303231B02C3181A61704794
:1004000010B503231B02C3189B680F248C40A34321
:1004100014468C402343032424020419A36010BD16
:100420008AB203231B02C3189A62704710B54B6847
:10043000CA681A430B681A430B7A002B01D0402379
:1004400000E000231A4303231B02C3181B69064C58
:1004500023401A4303231B02C3181A6103231B0200
:10046000C3180A691A6010BD19F8FFFF00BFFEE744
:1004700070477047704700001FB50E48006B402161
:1004800008430C4908630121402000F01BF80120BB
:1004900040030090202001900748039069460748D8
:1004A000FFF716FF0022012149030448FFF790FFE0
:1004B0001FBD000000000140FFFF000000080048D1
:1004C00070477047002905D0054A126B0243044B60
:1004D0001A6304E0024A126B8243014B1A637047AD
:1004E0000000014004490968044A1140044A89187F
:1004F0000143014A11607047000001401FFF0000E6
:1005000000005A5AF8B505460C4616461F4600200C
:1005100000902948006B01214902084326490863DD
:10052000002D06D12548C069032108432349C8612D
:1005300016E02248C069400840002049C8610846CA
:100540000068012108431D49086008460069400809
:10055000400008610846C068012108431749C86087
:100560001748844201D1032003E016492046FFF7D3
:10057000D1FDC0B200902246002313480121FFF7AD
:10058000DFFD0102284620221043009A920010430A
:100590003043384301430848C16140680B49084370
:1005A0000549486000BF0448C0690121C9040840EA
:1005B0008842F8D1F8BD0000000001400014004856
:1005C0000048E80100127A000050D6DC82015A5A35
:1005D00070470000F0B58BB007460D461646002464
:1005E00000200A900990254801460EC9C06807936B
:1005F0000692059108901422204910316846FFF7B1
:10060000C5FD00BF08E0A00005A90858A84201D90F
:100610000A9403E0601CC4B2042CF4D300BF284643
:1006200070430990002409E0A00069460958099820
:10063000814201D9099403E0601CC4B2052CF3D3B4
:1006400000BF09984002072109030843310108430C
:100650000A99890008433843094988620846406876
:10066000084908430649486000BF0548806A0121DF
:10067000C90308408842F8D10BB0F0BDE80900007A
:100680000000014004005A5A70B504460C48006846
:1006900080B20C494018C008C000204308490860D7
:1006A00000F012F8054600F07BF8054800684007A6
:1006B000400FA04201D0012070BD0020FCE70000E7
:1006C0000000014000005A5AF8B500250027002418
:1006D0000026002000902D48006847077F0F2B4818
:1006E00080694004040F2948806A8007800F0090C9
:1006F0002648806AC005C60E3B0000F02FF90504AD
:100700000C130E103400A000214A11582148FFF7A5
:1007100001FD05462FE0204D2DE0204D2BE0012569
:10072000ED0328E00098002804D0012803D0032816
:100730000ED104E000BF18483546454311E0A00043
:10074000134A11581348FFF7E5FC7043054608E0CB
:10075000A0000F4A11580F48FFF7DCFC7043054614
:1007600000BF00BF07E0A000094A11580948FFF781
:10077000D1FC054600BF00BF044800680006410FD9
:100780002846C84005462846F8BD00000000014044
:10079000A8090000006CDC020024F40020800000A6
:1007A0000149086070470000000000207047704752
:1007B00070477047034800680349097840180149A9
:1007C00008607047040000200C00002010B50023D2
:1007D000022210491846FFF795FE0020FFF782FE1F
:1007E00008220C490020FFF7F5FE01210220FFF747
:1007F00069FE0220FFF74CFD0220FFF745FF064887
:10080000FFF7CEFF054806494861002088610520B2
:10081000086110BD00127A000090D003FFF90000BB
:1008200000E000E0014802490860704700127A00C9
:100830000000002000B5FFF7F5FF93214902098869
:100840004805400D09498969C90AC9020143074A97
:1008500091619321490249888805800D1146096AF2
:10086000890A89020143116200BD000000000140B5
:1008700000B589B01C48006B202108431A49086361
:10088000012005902020069018480890184880699B
:1008900000090001801D1649886105A91448FFF769
:1008A00017FD1148806B022108430F49886300201F
:1008B000009001900320000203900E480490002055
:1008C000694608720C48FFF7B1FD0E2208210A485C
:1008D000FFF796FD09490848FFF7A2FD01210648E8
:1008E000FFF780FD09B000BD00000140FFFF0000E0
:1008F000000400488813000000040040C409000000
:1009000010B50421084800F017F800280BD006485D
:1009100000F01BF804462146034800F01AF80421B1
:10092000014800F005F810BD0038014070477047DD
:10093000026A8A43026270470246D0690840002872
:1009400001D0012070470020FCE70146486AC0B290
:1009500070478162704770477047704730B4744683
:10096000641E2578641CAB4204D3635D5B00E3180E
:1009700030BC18471D46F8E702E008C8121F08C13E
:10098000002AFAD170477047002001E001C1121F10
:10099000002AFBD17047FFF76FFDFFF717FFFFF746
:1009A00067FF00BFFEE70000060000000600000031
:1009B000060000000600000006000000060000001F
:1009C000010000000300000002000000040000001D
:1009D00006000000080000000A0000000C000000F3
:1009E0000E00000010000000808D5B00001BB700AF
:1009F000002D310101366E0180A8120100366E0112
:100A000000512502006CDC0201A24A042C0A0000FD
:100A10000000002010000000780900003C0A0000DF
:100A200010000020000200008809000000127A0077
:0C0A3000000000000400000001000000B5
:04000005000000C136
:00000001FF
