:020000040000FA
:1000000010020020D9000000410200003702000069
:1000100000000000000000000000000000000000E0
:100020000000000000000000000000004D02000081
:10003000000000000000000043020000FB00000080
:10004000A70200003F020000470200002502000056
:100050004502000027020000290200002B020000D8
:100060002D0200001D0200001F02000021020000FE
:10007000390100003B010000A3020000A5020000BE
:100080002F020000310200003302000035020000A0
:100090003F01000041010000430100003B0200005D
:1000A0003D020000490200004B0200009D020000DA
:1000B0009F020000A10200003D0100002302000099
:1000C0000448854600F026F800480047C9020000B1
:1000D000C046C0461002002009480A4A002100A17B
:1000E000814200D902440848026008488047084815
:1000F0000047FEE7FEE7FEE7FEE7FEE7FEE700005B
:10010000000000200000000008ED00E06102000097
:10011000C1000000064C0125064E05E0E36807CC4F
:100120002B430C3C98471034B442F7D3FFF7CCFF75
:10013000DC040000FC040000704770477047704703
:100140007047704710B503460648036005E008880D
:10015000044C2081891C501E82B2002AF7D101482C
:10016000808910BD0030024010B503460648036088
:1001700005E0054C0868A060091D501E82B2002AE7
:10018000F7D10148808910BD0030024010B5034608
:100190000648036005E00878044C2072491C501E94
:1001A00082B2002AF7D10148808910BD0030024098
:1001B00010B503460648036005E00888044C20811A
:1001C000891C501E82B2002AF7D10148C06810BDB8
:1001D0000030024010B503460648036005E0054CB8
:1001E0000868A060091D501E82B2002AF7D101489C
:1001F000C06810BD0030024010B5034606480360D9
:1002000005E00878044C2072491C501E82B2002A76
:10021000F7D10148C06810BD0030024070477047F8
:100220007047704770477047704770477047704716
:1002300070477047704700BFFEE7704770477047D0
:1002400070477047704770477047704770470000AD
:10025000014802490860704700127A00000000203F
:1002600000B5FFF7F5FF9321490209884805400DC5
:1002700009498969C90AC9020143074A9161932161
:10028000490249888805800D1146096A890A890250
:100290000143116200BD000000000140704770473B
:1002A000704770477047704702E008C8121F08C1C6
:1002B000002AFAD170477047002001E001C1121FE7
:1002C000002AFBD17047000086B079A003C80591D1
:1002D0000490794903C9039102907749083103C911
:1002E000019100907548006B04218843001D7349FB
:1002F0000863082204A90020FFF748FF704908603E
:10030000042202A90020FFF71DFF6E4908600222A7
:1003100069460020FFF728FF6B49086000BE0822ED
:1003200004A90120FFF732FF65490860042202A9F1
:100330000120FFF707FF6349086002226946012098
:10034000FFF712FF6049086000BE082204A90220DE
:10035000FFF71CFF5A490860042202A90220FFF798
:10036000F1FE58490860022269461046FFF7FCFE7C
:100370005549086000BE082204A90320FFF706FFC4
:100380004F490860042202A90320FFF7DBFE4D4914
:100390000860022269460320FFF7E6FE4A4908602A
:1003A00000BE082204A90420FFF7F0FE44490860BB
:1003B000042202A91046FFF7C5FE42490860022246
:1003C00069460420FFF7D0FE3F49086000BE0822BE
:1003D00004A90520FFF7DAFE39490860042202A9C2
:1003E0000520FFF7AFFE3749086002226946052065
:1003F000FFF7BAFE3449086000BE082204A90620AF
:10040000FFF7C4FE2E490860042202A90620FFF768
:1004100099FE2C490860022269460620FFF7A4FED7
:100420002949086000BE082204A90720FFF7AEFE94
:1004300023490860042202A90720FFF783FE21490F
:100440000860022269460720FFF78EFE1E490860F9
:1004500000BE082204A91046FFF7CEFE1849086026
:10046000042202A90820FFF7A3FE16490860022211
:1004700069460820FFF7AEFE1349086000BE082257
:1004800004A90920FFF7B8FE0D490860042202A95B
:100490000920FFF78DFE0B490860022269460920FA
:1004A000FFF798FE0849086000BE00BFFEE70000A5
:1004B0000011223344556677CC040000000001404F
:1004C00004000020080000200C000020001122334E
:1004D000445566770011223344556677FC040000CA
:1004E0000000002010000000A80200000C05000021
:1004F0001000002000020000B802000000127A0084
:0C050000000000000000000000000000EF
:04000005000000C136
:00000001FF
