:020000040000FA
:1000000038020020D9000000D1070000BD07000021
:1000100000000000000000000000000000000000E0
:100020000000000000000000000000000D0D0000B6
:100030000000000000000000E5070000FB000000D9
:10004000850F0000C3070000410A0000C50600003C
:1000500055080000C7060000C9060000CB060000D6
:10006000CD060000BD060000BF060000C10600006E
:10007000B1060000B3060000810F0000830F0000EE
:10008000B5070000B7070000B9070000BB07000074
:10009000B7060000B9060000BB060000BF0700005D
:1000A000C1070000090D00000B0D0000890E0000C3
:1000B0008B0E00008D0E0000B5060000C306000088
:1000C0000448854600F0E2FA004800478914000021
:1000D000C046C0463802002009480A4A002100A153
:1000E000814200D902440848026008488047084815
:1000F0000047FEE7FEE7FEE7FEE7FEE7FEE700005B
:10010000000000200000000008ED00E04D0E00009F
:10011000C1000000D2B201E00270401C491EFBD2B7
:1001200070470022F6E710B513460A460446194602
:10013000FFF7F0FF204610BDF8B502464A40D40F45
:1001400042004B0052085B089A4202D2024608461F
:1001500011464A0023D0C30D4A00DDB2120EAD1A7B
:10016000202D35DA49020126490AF6058A19002CA4
:1001700000D0524220214F1B1146B9402A4110188D
:10018000C20D9A4221D0002C17D0012D08DCDA05CF
:10019000801AD20F8019D207DBB200F0DFF9F8BD68
:1001A000DA05801A012340001B06C01880185A4245
:1001B0008018CA0F1043490007E04908C2071143DD
:1001C000DA05801A80194008801800F0BFF9F8BDE0
:1001D00061000122511A001BF7E70122D2075140AA
:1001E000AAE70122D2075040A6E770B502464A406E
:1001F000D50F40004A00ED0740085208002814D0EF
:10020000002A12D0C40DD30D41020120C0055202B4
:10021000490A520AE41A091812187D34914201D38E
:10022000641C00E04900002C01DA002070BD0023AE
:10023000914201D3891A0343400849000028F7D1AD
:1002400000290AD0914202D10121C90705E091425B
:1002500001D2012101E00121C943E005C018401984
:1002600000F074F970BD420005D04200120E5242F7
:100270008A4201DB00207047C9050818704700005A
:10028000F0B507460846584087B0C00F04904800B4
:100290000E46590040084908BC1A884105D2384624
:1002A00031461E4617460B4602465800400810438A
:1002B0004DD0300D039040055900400D490D05907B
:1002C000401A0290402873DA18030121000B090537
:1002D0000843019004980092002806D01146019A24
:1002E00049420020904100910190029840210A1A51
:1002F0000199009800F0F6F805460C466B4607CBCE
:1003000000F011F9C0197141039A0E0D0023D7179F
:1003100056401A467A40164344D0049A002A2DD0FB
:10032000029A012A039A15DC1205C01A914101268E
:100330003605001C7141D20F059ED2070093019231
:1003400002962A46234600F04FF907B0F0BD384622
:100350003146FAE71605234A0F46B218C01AB741CC
:1003600001210905001C4F4100187F411146181852
:100370007941E20F10436D19644113E0E2076D0803
:1003800015436408C2071443039A01261205C01AD4
:1003900091413605001C7141CE07400830434908A1
:1003A000C01851412A46234600F011F9CDE7FFE776
:1003B000049801224000C117121A00238B410498AF
:1003C0003146C417381AA141EEE730B40124E407DE
:1003D000634030BC54E730B40124E407614030BCD2
:1003E0004EE700000000E0FF10B500229623114602
:1003F00000F0B4F810BD410040020122400AD205CD
:10040000090E80187F2901DA00207047962903DC45
:100410009622511AC84070479639884070470000AC
:100420004A0009030123090B1B051943094B10B5A9
:10043000520D9A4201DA002010BD064B34339A4225
:1004400003DC9A1A00F05EF810BD03495118884089
:1004500010BD0000FF030000CDFBFFFFC20FD2075D
:10046000400040080BD0C10D0723DB01C918400232
:100470000905400A1143C208400711437047002094
:1004800001467047F0B51FB40646002082B005460D
:100490004024019100901BE0019922460F4630460E
:1004A00000F030F8049A059B801A994110D3104649
:1004B0001946224600F016F8361A8F410197224657
:1004C00001200021009F00F00DF838184D410090E8
:1004D0002046641E0028DFDC019B00982946324636
:1004E00007B0F0BD10B5202A04DB0146203A914048
:1004F000002010BD914020239C1A0346E34019437D
:10050000904010BD10B5202A04DB0846203AD040A8
:10051000002110BD0B46D340D0402024A21A9140A8
:100520000843194610BD10B5202A06DBCB17084634
:10053000203A1041C1170B4306E00B461341D0404F
:100540002024A21A91400843194610BD002904DA5C
:10055000401C490001D140084000704770B400249D
:10056000050C05D11024000402D1002921D011244A
:10057000050E01D100020834050F01D10001241D30
:10058000850F01D18000A41C002801DB4000641C01
:10059000002908D020252E1B0D46F540A14000D093
:1005A00001212943084301061B1B000ADB1D02D55C
:1005B000002070BC7047DB05181880180029F8DA95
:1005C000401C4900F5D170BC40084000704710B590
:1005D000002B08DA0024401C614192185B411A4349
:1005E00001D14008400010BDF0B51FB482B00546EF
:1005F0000C0003D0084600F0D7FC02E000F0D4FC69
:1006000020300246009021462846FFF76BFF049BEE
:10061000059A04460F4618431143084314D0184660
:1006200010431BD0009840210A1A18460599FFF77D
:1006300069FF05460E46009A05990498FFF752FF98
:10064000084305D0012004E02046394607B0F0BD3C
:100650000020C11705430E432C43374300990E98E1
:100660006305401A7905E40A00220C43FD0A0A30AA
:1006700002D500200146E9E70105101969410C9CEB
:100680000D9D00196941FFF7A2FFDFE7064C012528
:10069000064E05E0E36807CC2B430C3C984710342A
:1006A000B442F7D3FFF710FD7C1600009C16000043
:1006B0007047704770477047704770477047704782
:1006C0007047704770477047704770477047000029
:1006D0000CC90839002B0DD0C3699343C3610A7953
:1006E000D20602680B684DD51A4302604A68112A87
:1006F00004D00BE0C1691143C161704702690B6806
:100700001A430261C2680B689A43C2604A68122A9F
:1007100007D1C2680B681A43C26002690B689A432A
:100720000261426A0B689A434262826A0B689A438A
:100730008262C26A0B689A43C262026B0B689A4378
:1007400002638B6881229A4303D1426A0B681A4381
:1007500042628B6882229A4303D1826A0B681A43F1
:1007600082628B6884229A4303D1C26A0B681A435F
:10077000C2628B6888229A43BFD1026B09680A4320
:10078000026370479A4302604A68202A42680B68F5
:1007900009D01A434260064BCA689A4282680968C7
:1007A00003D10A4302E09A43F4E78A438260704728
:1007B000FFFF00007047704770477047FEE77047C3
:1007C0007047704710B5E120400200F0A1FA10BD5B
:1007D0007047000072B604200149086062B6704795
:1007E00000E100E070470000044A0029916B01D04D
:1007F000014300E081439163704700000000014025
:1008000010B5052000F012F800F056F80222082179
:10081000002000F021F801210820FFF7E5FF10BDBE
:100820000148C0687047000040000140C1029320A9
:10083000400200880143054881614168044A114330
:10084000416081690904FCD5704700000000014047
:1008500001005A5A7047000070B5144C236B4025B4
:100860002B432363124B002819D0DE692D02AE43BF
:10087000DE611E682E431E601E692E401E61DE680A
:100880002E43DE60084310433021084360626068F5
:10089000084908436060606A0004FCD570BDDD69EA
:1008A000032676033543DD61ECE7000000000140DC
:1008B0000008004850015A5A9320400241880748D6
:1008C0000162016A03229202114301624168044AF3
:1008D00011434160016A0904FCD5704700000140E2
:1008E00008005A5A10B51A4A13681B0A1B02CA3369
:1008F000136013681B0A1B025333136053681B06F3
:1009000006D5936801242343936093689B07FCD525
:100910000123C9075B02C90F9842D06802D19843EE
:10092000490203E001239B02984389020843D060F7
:1009300090684008400090601068000A0002CA30C9
:1009400010601068000A0002CA30106010BD00007C
:10095000002800400B490A68120A1202CA320A60D3
:100960000A68120A120253320A60C0438863086898
:10097000000A0002CA3008600868000A0002CA3093
:1009800008607047002800400E490A68120A1202E7
:10099000CA320A600A68120A120253320A604A68AE
:1009A0008023C0079A43000E02434A600868000A89
:1009B0000002CA3008600868000A0002CA300860F5
:1009C0007047000000280040064A516953698B4275
:1009D000FBD101700A0A42700A0C49018270490F6A
:1009E000C170704700280040054A516B536B8B4221
:1009F000FBD1014201D00120704700207047000068
:100A00000028004010B50D4A51680907CC0F047149
:100A1000916993698B42FBD18A024B04920E5B0E63
:100A200049068270490E43700170002C04D15109AF
:100A3000C170D106C90E817010BD000000280040B1
:100A400010B500F001F810BD10B50120FFF7CCFF84
:100A5000002805D00120FFF77DFF07A000F094FAE1
:100A60004020FFF7C1FF002804D04020FFF772FFAD
:100A700000F0A6F910BD00002A2A2A2A2A2A2A2ACA
:100A80002A416C61726D212121210D0A00000000B4
:100A90000E4A13681B0A1B02CA33136013681B0A31
:100AA0001B02533313600029116B0CD001431163F7
:100AB0001068000A0002CA3010601068000A0002C4
:100AC000CA30106070478143F1E700000028004001
:100AD00070B504461D48816B0825294381630020B9
:100AE000FFF752FF206800F069F8FFF799FEC00792
:100AF00007D02046093000F07BF8201D00F0CAF82E
:100B00001BE013490868000A0002CA300860086840
:100B1000000A0002533008604868227AA843D207CE
:100B2000120F104348600868000A0002CA300860CB
:100B30000868000A0002CA300860044900204031F9
:100B4000C8600120FFF720FF012070BD00000140B8
:100B50000028004010B50A788B6813438A784978DA
:100B6000120409020A43144913430A68120A1202C2
:100B7000CA320A600A68120A120253320A608A688C
:100B8000012422438A608A689207FCD5C21FFF3A7B
:100B9000FA3A0FD00B628868400840008860086805
:100BA000000A0002CA3008600868000A0002CA3061
:100BB000086010BDCB61EEE7002800400B490A68D1
:100BC000120A1202CA320A600A68120A1202533268
:100BD0000A6088600868000A0002CA300860086875
:100BE000000A0002CA300860704700000028004078
:100BF00010490A68120A1202CA320A600A68120A06
:100C0000120253320A60C37802781B061A438378B3
:100C100040781B04000203431A434A610868000A33
:100C20000002CA3008600868000A0002CA30086082
:100C3000704700000028004015490A68120A120295
:100C4000CA320A600A68120A120253320A604A68FB
:100C5000120606D58A6801231A438A608A689207B9
:100C6000FCD54A684007D208D200400F02434A60D0
:100C700088684008400088600868000A0002CA309E
:100C800008600868000A0002CA3008607047000067
:100C9000002800401B490A68120A1202CA320A6080
:100CA0000A68120A120253320A604A6808239A43F9
:100CB0000379DB071B0F1A434A600279002A16D01A
:100CC0008278437812041B0200781A4302438A6137
:100CD00088684008400088600868000A0002CA303E
:100CE00008600868000A0002CA3008607047C378CC
:100CF00002785B051A43837840781B0400020343A3
:100D00001A43E4E70028004070477047704700002E
:100D1000F1B58AB00024182168460894FFF701FA5B
:100D200022480168234B09064A0F21491D688A5C45
:100D3000D5400268D206920F895CCD40016B102627
:100D400031430163416B4215114341630927FF069B
:100D5000786900090001801C78617869F021884376
:100D6000203078615010069020200790124809909A
:100D700006A93846FFF7ACFC700106A941C1384608
:100D80000839FFF7A5FC0A98009068468480C48063
:100D900002958481C4810482848203214182694650
:100DA000064800F079F80BB0F0BD000000000140EB
:100DB0004C16000000000020FFFF0000003801403A
:100DC00010B588B007A8FFF7FFFD05A8FFF71AFECA
:100DD0006C46227E0D4BD200D218E37D207D9B0015
:100DE000D258617DA37D0391019302920490E07F2C
:100DF000064980001C3908580090237F627FA17F3C
:100E000003A000F0C1F808B010BD000020000020D1
:100E10002E44617465206973203230253032782F7A
:100E2000253032782F25303278282573292E5469C1
:100E30006D65206973202530327825733A2530326C
:100E4000783A253032780D0A000000000C490B4832
:100E500093235B020860188841050A48490D82699E
:100E6000D20AD2020A4382615988026A8905890D31
:100E7000920A92020A4302627047000000127A004E
:100E80000000002000000140704770477047C069B3
:100E9000084000D001207047F8B505460C46888808
:100EA0008989228A0843E18911430843618A0843FA
:100EB0002968304A114008432860E088A18A084325
:100EC0006968C3229200914308436860A0882A4E53
:100ED000002813D0C11FFF39FA390CD00121890233
:100EE000884220682ED18000FFF77EFA0746A0686E
:100EF000FFF77AFA2FE02068C000F5E720680001CC
:100F0000FFF772FA0746A068FFF76EFA3946FFF757
:100F10006CF90446FFF76FFA87B23846FFF764FAB8
:100F20002146FFF75EF90421FFF79DF9FFF796FAD6
:100F300000223346FFF7A4F9FFF772FA80B2EF60A0
:100F40002861F8BDFFF750FA0746A068FFF74CFA92
:100F50000821FFF788F93946FFF747F9FFF77EFACE
:100F600000223346FFF78CF9FFF75AFA80B2E860A7
:100F7000F8BD0000C0F8FFFF0000E03F816270474D
:100F800070477047704700000FB410B503A9044BB9
:100F9000044A029800F02EF810BC08BC04B01847B0
:100FA00069140000300000202021020C01D0102123
:100FB0001046020A01D010460839020901D0104635
:100FC000091F820801D01046891E420801D0881EE0
:100FD0007047081A704702E008C8121F08C1002AAB
:100FE000FAD170477047002001E001C1121F002AAA
:100FF000FBD17047FFB591B00F460546002606E0CD
:1010000025280AD0149A139990476D1C761C2878CD
:101010000028F5D1304615B0F0BD00240094012120
:10102000F34A029400E004436D1C2B780846203BF1
:1010300098401042F7D128782A280ED0022228782A
:1010400001463039092915D800990A235943303906
:10105000401814436D1C0090F1E701CF0090002868
:1010600005DA01204003044300984042009002202A
:1010700004436D1C28782E2815D104200443687879
:101080006D1C2A280AD101CF6D1C02900BE0029939
:101090000A225143303940186D1C029028780146CD
:1010A00030390929F3D928786C2810D006DC4C286F
:1010B0001AD068280ED06A2817D104E0742813D0FB
:1010C0007A2812D110E00120400504430CE00121F0
:1010D000090501E0032109050C436978814203D128
:1010E0000120000524186D1C6D1C28786E281ED068
:1010F0000CDC632831D004DC00288BD0582811D1B7
:10110000B2E064287BD069280CD178E073282DD018
:1011100004DC6F2870D0702804D1A7E075286CD04B
:1011200078286BD0149A13999047761C62E060027D
:10113000400F022807D003280AD0042838680AD0B4
:1011400006603F1D56E03868F11706604160F8E719
:1011500038680680F5E70670F3E738786946087462
:101160000020487404A80390012003E0386803902D
:101170000020C0433F1D61070FD5002101E0019908
:10118000491C029A0191914213DA8142F7DB019ADC
:101190000399895C0029F2D10BE0002101E001995B
:1011A000491C01918142FADB019A0399895C00296B
:1011B000F5D101990098139A401A00902146149B8A
:1011C00000F03CF901998019461807E0039803994B
:1011D0000078491C0391149A139990470198401E76
:1011E0000190401CF2D12146149B139A009800F004
:1011F00015F986196D1C0AE741E033E034E00A2056
:101200000021049005916002410F022905D001CF11
:10121000C2179446032905D007E0FF1DFF08FF0011
:1012200003CF06E000B2C2179446042902D140B2AF
:10123000C1178C4600226146944506DA0A46002111
:10124000404291418C462D2102E0210504D52B21FD
:101250006A461176012103E0E10701D02021F7E77A
:10126000019155E00A200BE0102009E010200490C5
:1012700000210420044308200591029003E0082087
:101280000021059104906002410F022905D001CF91
:1012900000229446032906D006E0FF1DFF08FF0048
:1012A00003CF8C4603E080B2042900D1C0B20021F4
:1012B000019121072CD529780391702906D0049A31
:1012C0001021059B4A401A4305D00EE040216A4692
:1012D0001176012108E06146014306D030216A46BB
:1012E00011760399517602210191049A0821059BF8
:1012F0004A401A430CD16146014301D1610707D529
:1013000030216A461176012101910299491E02910C
:101310002978582904D037A103910FA90F910DE026
:1013200039A1F9E76146059B049AFFF7ABF8039BE7
:101330008C469B5C0F9A521E0F92137061460143BC
:10134000F0D10F9807A9081A20300390600704D540
:10135000012000048443029801E0012002900399D7
:10136000884201DD401A00E00020411802900198F7
:1013700009180098401A0090E00306D42146149BF7
:10138000139A009800F05AF886190020049008E09B
:1013900006A9085C149A139990470498401C761C7F
:1013A000049001998842F3DBE0030CD52146149B9D
:1013B000139A009800F042F8861904E0149A30203D
:1013C00013999047761C0299481E02900029F5DC7B
:1013D00008E00F980F990078491C0F91149A1399FF
:1013E0009047761C0399481E03900029F1DCFAE629
:1013F00009280100303132333435363738396162EB
:1014000063646566000000003031323334353637AE
:10141000383941424344454600000000F8B50446CF
:1014200000251E461746880404D405E039462020CE
:10143000B0476D1C641EF9D52846F8BDFFB50446BB
:10144000002581B01E46C80301D5302700E02027C3
:10145000880404D505E038460399B0476D1C641E26
:10146000F9D5284605B0F0BD10B5064CC1B22046EE
:10147000FFF784FD01212046FFF709FD0028F9D080
:10148000002010BD0038014088B0FFF7B9F9FFF720
:10149000A1F9FFF797F929A0FFF776FD2B48C0685F
:1014A00000902B48C368826841682AA0FFF76CFD52
:1014B000022208210020FFF7CFF9212168460625E6
:1014C0004173857301240474C1730B462A4630A00E
:1014D000FFF75AFD02216846817258224272592351
:1014E0000372C4720024047331A0FFF74DFD01A8FC
:1014F0000194FFF7EDFA37A0FFF746FD0120FFF753
:101500009BFB3EA0FFF740FD1F204006079068466A
:1015100085754521417504750124640205A920469D
:10152000FFF718FB01212046FFF7DCF93DA0FFF78C
:101530002BFD01214120FFF7ABFAFEE75254432077
:10154000496E69742E2E2E0D0A00000040000140E5
:1015500000280040202020202852544320435230AD
:101560003A253034782C4352313A253034782C43A4
:1015700052323A253034782C524553455420464C4B
:1015800041473A307825303878290D0A00000000AC
:101590002D2D2D2D2D2D2D53657420446174652026
:1015A000617320323025782F25782F25780D0A0099
:1015B0002D2D2D2D2D2D2D5365742054696D6520F5
:1015C000617320253032783A253032783A2530322E
:1015D000780D0A003D3D3D3D3D53657420696E74B4
:1015E000657276616C20706572696F64206173202A
:1015F000302E35732E2E2E0D0A0000003D3D3D3D50
:101600003D53657420416C61726D412061742036D8
:101610003A3435206F6E20776F726B6461792E2EAD
:101620002E0D0A003D3D3D3D3D456E61626C6520DD
:10163000414C52414D4120616E6420494E54455207
:1016400056414C2049542E2E2E0D0A000001020353
:1016500004050607574544005455450046524900C5
:10166000414D0000504D00004D4F4E0053554E006F
:101670005341540054485500000000009C160000DF
:101680000000002034000000D60F0000D01600003B
:101690003400002004020000E60F000000127A006F
:1016A0006C16000068160000581600005416000062
:1016B000741600005C160000701600006016000032
:1016C0006416000078160000781600000000000084
:04000005000000C136
:00000001FF
