:020000040000FA
:1000000018020020D900000039090000F50800009E
:1000100000000000000000000000000000000000E0
:100020000000000000000000000000004B0C000079
:1000300000000000000000003B0900004D0C000023
:10004000050F0000FD080000450C00009D070000A2
:10005000690A0000D9070000DB070000DD07000087
:10006000DF070000950700009707000099070000D0
:10007000890700008B070000010F0000030F00003C
:10008000ED080000EF080000F1080000F308000090
:100090008F0700009107000093070000F908000097
:1000A000FB080000470C0000490C0000090D00008F
:1000B000350D0000370D00008D0700009B07000084
:1000C0000448854600F04EFB0048004791100000B0
:1000D000C046C0461802002009480A4A002100A173
:1000E000814200D902440848026008488047084815
:1000F0000047FEE7FEE7FEE7FEE7FEE7FEE700005B
:10010000000000200000000008ED00E0CD0C000021
:10011000C100000030B50B4601460020202201241A
:1001200009E00D46D5409D4205D31D469540491B2B
:100130002546954040191546521E002DF1DC30BD74
:10014000F8B500242546002904DA0E4601240021D2
:100150004042B141002B04DA1E46002352420125E1
:10016000B34100F0FBF98C4617461E46AC4203D063
:10017000002540428D41AC46002C02D0002657425B
:100180009E4161463A46334601B0F0BD03460B43FB
:100190009B0703D009E008C9121F08C0042AFAD23D
:1001A00003E00B780370401C491C521EF9D27047C3
:1001B000F8B502464A40D40F42004B0052085B0893
:1001C0009A4202D20246084611464A0023D0C30D85
:1001D0004A00DDB2120EAD1A202D35DA4902012691
:1001E000490AF6058A19002C00D0524220214F1BE3
:1001F0001146B9402A411018C20D9A4221D0002C54
:1002000017D0012D08DCDA05801AD20F8019D20729
:10021000DBB200F00FFAF8BDDA05801A01234000C6
:100220001B06C01880185A428018CA0F1043490094
:1002300007E04908C2071143DA05801A801940080F
:10024000801800F0EFF9F8BD61000122511A001B7F
:10025000F7E70122D2075140AAE70122D207504016
:10026000A6E7024670B54A40D30FDB0740002DD009
:100270004A002AD0010E140E000212020919400A87
:10028000520A8418E50104465443000A120A2E0457
:100290005043A4194219200CC543AA18120C012579
:1002A000AD03521C521912047F39240400D0521C91
:1002B000104301D44000491EC2B20C06C0092018E8
:1002C000401C4008802A02D003E0002070BD400896
:1002D0004000002900DA0020184370BD70B50246C6
:1002E0004A40D50F40004A00ED0740085208002858
:1002F00014D0002A12D0C40DD30D41020120C00534
:100300005202490A520AE41A091812187D3491421D
:1003100001D3641C00E04900002C01DA002070BD0C
:100320000023914201D3891A034340084900002861
:10033000F7D100290AD0914202D10121C90705E075
:10034000914201D2012101E00121C943E005C01819
:10035000401900F067F970BDF0B5074608465840EF
:1003600087B0C00F049048000E4659004008490865
:10037000BC1A884105D2384631461E4617460B4600
:1003800002465800400810434DD0300D0390400500
:100390005900400D490D0590401A0290402873DA2B
:1003A00018030121000B09050843019004980092ED
:1003B000002806D01146019A494200209041009140
:1003C0000190029840210A1A0199009800F0F6F86D
:1003D00005460C466B4607CB00F011F9C019714178
:1003E000039A0E0D0023D71756401A467A4016433B
:1003F00044D0049A002A2DD0029A012A039A15DCCF
:100400001205C01A914101263605001C7141D20F18
:10041000059ED2070093019202962A46234600F0D9
:100420004FF907B0F0BD38463146FAE71605234AC2
:100430000F46B218C01AB74101210905001C4F41EF
:1004400000187F41114618187941E20F10436D19C9
:10045000644113E0E2076D0815436408C2071443C2
:10046000039A01261205C01A91413605001C7141FC
:10047000CE07400830434908C01851412A46234658
:1004800000F011F9CDE7FFE7049801224000C11701
:10049000121A00238B4104983146C417381AA1411F
:1004A000EEE730B40124E407634030BC54E730B4D5
:1004B0000124E407614030BC4EE700000000E0FF8B
:1004C00010B500229623114600F0B4F810BD41008B
:1004D00040020122400AD205090E80187F2901DA64
:1004E00000207047962903DC9622511AC8407047B5
:1004F00096398840704700004A0009030123090B20
:100500001B051943094B10B5520D9A4201DA002020
:1005100010BD064B34339A4203DC9A1A00F05EF8A1
:1005200010BD03495118884010BD0000FF030000B2
:10053000CDFBFFFFC20FD207400040080BD0C10D1A
:100540000723DB01C91840020905400A1143C2080C
:10055000400711437047002001467047F0B51FB4B3
:100560000646002082B005464024019100901BE021
:10057000019922460F46304600F030F8049A059B58
:10058000801A994110D310461946224600F016F8F9
:10059000361A8F410197224601200021009F00F06A
:1005A0000DF838184D4100902046641E0028DFDC0D
:1005B000019B00982946324607B0F0BD10B5202AAD
:1005C00004DB0146203A9140002010BD91402023D9
:1005D0009C1A0346E3401943904010BD10B5202AF1
:1005E00004DB0846203AD040002110BD0B46D34022
:1005F000D0402024A21A91400843194610BD10B5DE
:10060000202A06DBCB170846203A1041C1170B43BE
:1006100006E00B461341D0402024A21A9140084323
:10062000194610BD002904DA401C490001D14008D8
:100630004000704770B40024050C05D1102400045C
:1006400002D1002921D01124050E01D10002083465
:10065000050F01D10001241D850F01D18000A41CCC
:10066000002801DB4000641C002908D020252E1B37
:100670000D46F540A14000D0012129430843010661
:100680001B1B000ADB1D02D5002070BC7047DB0578
:10069000181880180029F8DA401C4900F5D170BC00
:1006A00040084000704710B5002B08DA0024401CB9
:1006B000614192185B411A4301D14008400010BDCE
:1006C000F0B51FB482B005460C0003D0084600F018
:1006D00025FC02E000F022FC20300246009021467A
:1006E0002846FFF76BFF049B059A04460F46184304
:1006F0001143084314D0184610431BD000984021E2
:100700000A1A18460599FFF769FF05460E46009A32
:1007100005990498FFF752FF084305D0012004E033
:100720002046394607B0F0BD0020C11705430E43EF
:100730002C43374300990E986305401A7905E40A63
:1007400000220C43FD0A0A3002D500200146E9E7E9
:100750000105101969410C9C0D9D00196941FFF7B5
:10076000A2FFDFE7064C0125064E05E0E36807CC53
:100770002B430C3C98471034B442F7D3FFF7A4FC4A
:1007800030120000501200007047704770477047E9
:100790007047704770477047704770477047000058
:1007A0000A4A126B02239A43921C084B1A630028D0
:1007B00004D00822024310231A4300E0002211460D
:1007C000034A0A43034B5A6070470000000001408F
:1007D00000005A5A00200240704770477047704727
:1007E0004A68002A04D1C2690B681A43C26174E0E6
:1007F000C2690B689A43C26110234A681A40102AE2
:100800004ED102680B681A4302604A68112A07D168
:1008100002690B681A430261C2680B689A43C2609E
:100820004A68122A07D1C2680B681A43C26002697B
:100830000B689A430261426A0B689A434262826A79
:100840000B689A438262C26A0B689A43C262026B67
:100850000B689A43026381238A681A40812A03D174
:10086000426A0B681A43426282238A681A40822ACB
:1008700003D1826A0B681A43826284238A681A4011
:10088000842A03D1C26A0B681A43C26288238A6829
:100890001A40882A21D1026B0B681A4302631CE0BC
:1008A00002680B689A4302604A68202A04D14268B1
:1008B0000B689A43426003E042680B681A43426047
:1008C000064BCA689A4204D182680B681A43826058
:1008D00003E082680B689A4382607047FFFF000064
:1008E000012A01D1C16500E08165704770477047FA
:1008F0007047704700BFFEE77047704770470000C1
:100900001FB50121402000F019F80120400300909C
:10091000202001900648039069460648FFF760FFD3
:100920000022012149030348FFF7DAFF1FBD000041
:10093000FFFF00000008004870477047002905D0FD
:10094000054A126B0243044B1A6304E0024A126B1D
:100950008243014B1A63704700000140002905D013
:10096000054A526B0243044B5A6304E0024A526B3D
:100970008243014B5A6370470000014004490968F3
:10098000044A1140044A89180143014A1160704722
:10099000000001401FFF000000005A5AF8B505464C
:1009A0000C4616461F46002000902948006B012186
:1009B0004902084326490863002D06D12548C0692D
:1009C000032108432349C86116E02248C069400852
:1009D00040002049C86108460068012108431D49BC
:1009E0000860084600694008400008610846C06881
:1009F000012108431749C8601748844201D10320E8
:100A000003E016492046FFF785FBC0B2009022465E
:100A1000002313480121FFF793FB010228462022FF
:100A20001043009A92001043304338430143084872
:100A3000C16140680B4908430549486000BF04484C
:100A4000C0690121C90408408842F8D1F8BD0000FE
:100A500000000140001400480048E80100127A003C
:100A60000050D6DC82015A5A70470000F0B58BB0B6
:100A700007460D461646002400200A900990254896
:100A800001460EC9C068079306920591089014228A
:100A9000204910316846FFF779FB00BF08E0A0004D
:100AA00005A90858A84201D90A9403E0601CC4B201
:100AB000042CF4D300BF284670430990002409E0B9
:100AC000A000694609580998814201D9099403E0B8
:100AD000601CC4B2052CF3D300BF09984002072163
:100AE00009030843310108430A9989000843384340
:100AF0000949886208464068084908430649486031
:100B000000BF0548806A0121C90308408842F8D126
:100B10000BB0F0BD0C1200000000014004005A5A56
:100B200070B504460C48006880B20C494018C008F3
:100B3000C00020430849086000F012F8054600F0A4
:100B40007BF8054800684007400FA04201D0012013
:100B500070BD0020FCE700000000014000005A5A70
:100B6000F8B50025002700240026002000902D481D
:100B7000006847077F0F2B4880694004040F29480D
:100B8000806A8007800F00902648806AC005C60EE4
:100B90003B0000F0DAF905040C130E103400A0003D
:100BA000214A11582148FFF7B5FA05462FE0204D9C
:100BB0002DE0204D2BE00125ED0328E000980028D2
:100BC00004D0012803D003280ED104E000BF184848
:100BD0003546454311E0A000134A11581348FFF76A
:100BE00099FA7043054608E0A0000F4A11580F48D3
:100BF000FFF790FA7043054600BF00BF07E0A00072
:100C0000094A11580948FFF785FA054600BF00BF99
:100C1000044800680006410F2846C840054628469B
:100C2000F8BD000000000140CC110000006CDC02A7
:100C30000024F40020800000014908607047000093
:100C400000000020704770477047704703480068F5
:100C500003490978401801490860704704000020E2
:100C60000C00002010B50023022210491846FFF79F
:100C700095FE0020FFF782FE08220C490020FFF7B6
:100C8000F5FE01210220FFF759FE0220FFF788FD43
:100C90000220FFF745FF0648FFF7CEFF054806494B
:100CA0004861002088610520086110BD00127A00AB
:100CB0000090D003FFF9000000E000E00148024985
:100CC0000860704700127A000000002000B5FFF7AE
:100CD000F5FF9321490209884805400D09498969B2
:100CE000C90AC9020143074A91619321490249880F
:100CF0008805800D1146096A890A8902014311623B
:100D000000BD00000000014010B50421084800F0BB
:100D100020F800280BD0064800F0ECF804462146E5
:100D2000034800F0EBF80421014800F005F810BD7D
:100D30000038014070477047026A8A430262704778
:100D40000246D0690840002801D0012070470020E9
:100D5000FCE70246D0690840002801D00120704716
:100D60000020FCE710B5002A03D083680B438360A2
:100D700004E08368CC43A4B22340836010BD00002C
:100D8000F0B589B005460C460026002008900027E3
:100D9000A088A1890843E1890843218A0843618A20
:100DA00008432968514A114008432860E088A18A15
:100DB00008436968C3229200914308436860A08891
:100DC00000282FD121680801FFF77AFB0790A0685F
:100DD000FFF776FB06900799FFF780FA074638463B
:100DE000FFF775FB86B23046FFF76AFB3946019084
:100DF000FFF733FA8321C9050290FFF732FA039017
:100E0000FFF798FB00223A4B05910490FFF7A4FAF4
:100E100007910690FFF770FB80B20890EE6008988B
:100E2000286160E0A0880121490288421BD1216825
:100E3000C800FFF745FB0290A068FFF741FB019057
:100E40000299FFF74BFA0390FFF774FB0022284B3F
:100E500005910490FFF780FA07910690FFF74CFB8D
:100E600086B2EE603FE0A0880121890288421BD152
:100E700021688800FFF724FB0290A068FFF720FBA1
:100E800001900299FFF72AFA0390FFF753FB002223
:100E9000174B05910490FFF75FFA07910690FFF753
:100EA0002BFB86B2EE601EE02068FFF709FB029084
:100EB000A068FFF705FB8721C9050090FFF7D1F96E
:100EC00001900299FFF70AFA0390FFF733FB002223
:100ED000074B05910490FFF73FFA07910690FFF743
:100EE0000BFB86B2EE6009B0F0BD0000C0F8FFFF5A
:100EF0000000E03F0146486AC0B270478162704717
:100F0000704770477047000010B5024A024900F070
:100F100076F810BD6D100000100000202021020C9A
:100F200001D010211046020A01D0104608390209EA
:100F300001D01046091F820801D01046891E4208C0
:100F400001D0881E7047081A704730B47446641E7A
:100F50002578641CAB4204D3635D5B00E31830BCAE
:100F600018471D46F8E7000010B5002819DB1A4A9B
:100F700003231B02D21883089B00D2588307DC0E80
:100F8000FF23A3409A438B071B0E8407E40EA34064
:100F90001A43114B032424021B198408A4001A517C
:100FA00018E00E4A03071B0F083B9B089B00D25812
:100FB0008307DC0EFF23A3409A438B071B0E840795
:100FC000E40EA3401A43054B0407240F083CA40871
:100FD000A4001A5110BD000000E100E01CED00E08B
:100FE00002E008C8121F08C1002AFAD170477047F2
:100FF000002001E001C1121F002AFBD17047F8B5A3
:1010000016460F460446002503E03946B047641CE7
:101010006D1C20780028F8D12846F8BD10B504468C
:101020007D21C9006143084600F002F810BD0000B0
:1010300030B5034626229C010B4DA96911E00A4DEB
:10104000A86988420DD0884202D20D1AAA1804E07D
:10105000054D6D692D1A6D18AA180146A24200D3DC
:1010600000E0ECE700BF30BD00E000E070B50446F2
:101070000D46E1B20548FFF741FF00BF01210348DB
:10108000FFF75EFE0028F9D0204670BD0038014011
:10109000FFF7E8FDFFF734FC00F032F81048006B72
:1010A000402108430E49086318E0012251030D480E
:1010B000FFF716FC0CA0FFF727FF7D20C000FFF70D
:1010C000ADFF0022012149030648FFF709FC09A0F2
:1010D000FFF71AFF7D20C000FFF7A0FFE5E7000043
:1010E00000000140000800484C4544204F4E0D0AC6
:1010F000000000004C4544204F46460D0A00000009
:1011000000B58BB001211020FFF718FC0121480227
:10111000FFF724FC0920C006406900090001801C7B
:101120000921C906486108464069F02188432030FA
:101130000921C9064861FF2001300790202008904E
:101140001E480A9007A90920C006FFF749FB0120A5
:10115000400207901120089007A90920C006FFF758
:101160003FFBE1204002019000216846018141815E
:1011700013480390684601824182818201830321E2
:10118000C18201A90F48FFF7FBFD00211B20FFF7DB
:10119000EBFE1B20002809DB00BF00BFC206D20EF9
:1011A00001219140084A116000BF00BF00BF012229
:1011B00004210448FFF7D6FD0BB000BDFFFF00007F
:1011C0000090D0030038014000E100E0060000007C
:1011D00006000000060000000600000006000000F7
:1011E00006000000010000000300000002000000F3
:1011F0000400000006000000080000000A000000D3
:101200000C0000000E00000010000000808D5B004C
:10121000001BB700002D310101366E0180A81201BC
:1012200000366E0100512502006CDC0201A24A0466
:10123000501200000000002014000000E00F000029
:10124000641200001400002004020000F00F0000EF
:1012500000127A00000000000400000001000000FD
:04126000000000008A
:04000005000000C136
:00000001FF
