:020000040000FA
:1000000008020020D9000000F3030000E90300000B
:1000100000000000000000000000000000000000E0
:10002000000000000000000000000000DF070000EA
:100030000000000000000000F5030000FB000000CD
:1000400037080000F1030000D90700008B02000010
:1000500099050000D7020000D9020000DB02000071
:10006000DD0200008302000085020000870200001C
:100070007702000079020000330800003508000014
:10008000E1030000E3030000E5030000E7030000D4
:100090007D0200007F02000081020000ED030000ED
:1000A000EF030000DB070000DD0700002D08000063
:1000B0002F080000310800007B02000089020000C8
:1000C0000448854600F0A4F8004800477508000081
:1000D000C046C0460802002009480A4A002100A183
:1000E000814200D902440848026008488047084815
:1000F0000047FEE7FEE7FEE7FEE7FEE7FEE700005B
:10010000000000200000000008ED00E0F107000002
:10011000C100000030B50B4601460020202201241A
:1001200009E00D46D5409D4205D31D469540491B2B
:100130002546954040191546521E002DF1DC30BD74
:10014000F8B500242546002904DA0E4601240021D2
:100150004042B141002B04DA1E46002352420125E1
:10016000B34100F025F88C4617461E46AC4203D03A
:10017000002540428D41AC46002C02D0002657425B
:100180009E4161463A46334601B0F0BD03460B43FB
:100190009B0703D009E008C9121F08C0042AFAD23D
:1001A00003E00B780370401C491C521EF9D27047C3
:1001B000F0B51FB40646002082B0054640240191E8
:1001C00000901BE0019922460F46304600F042F8AD
:1001D000049A059B801A994110D31046194622466D
:1001E00000F028F8361A8F4101972246012000219D
:1001F000009F00F01FF838184D4100902046641E03
:100200000028DFDC019B00982946324607B0F0BD8C
:10021000064C0125064E05E0E36807CC2B430C3C59
:1002200098471034B442F7D3FFF74EFFE4090000BB
:10023000040A000010B5202A04DB0146203A914050
:10024000002010BD914020239C1A0346E34019432F
:10025000904010BD10B5202A04DB0846203AD0405B
:10026000002110BD0B46D340D0402024A21A91405B
:100270000843194610BD7047704770477047704774
:100280007047704770477047704770470A4A126B53
:1002900002239A43921C084B1A63002804D00822B8
:1002A000024310231A4300E000221146034A0A4386
:1002B000034B5A60704700000000014000005A5A8A
:1002C0000020024008B5009000BF00994A1E00922D
:1002D0000029FAD108BD7047704770477047000089
:1002E0004A68002A04D1C2690B681A43C26174E0EB
:1002F000C2690B689A43C26110234A681A40102AE7
:100300004ED102680B681A4302604A68112A07D16D
:1003100002690B681A430261C2680B689A43C260A3
:100320004A68122A07D1C2680B681A43C260026980
:100330000B689A430261426A0B689A434262826A7E
:100340000B689A438262C26A0B689A43C262026B6C
:100350000B689A43026381238A681A40812A03D179
:10036000426A0B681A43426282238A681A40822AD0
:1003700003D1826A0B681A43826284238A681A4016
:10038000842A03D1C26A0B681A43C26288238A682E
:100390001A40882A21D1026B0B681A4302631CE0C1
:1003A00002680B689A4302604A68202A04D14268B6
:1003B0000B689A43426003E042680B681A4342604C
:1003C000064BCA689A4204D182680B681A4382605D
:1003D00003E082680B689A4382607047FFFF000069
:1003E000704770477047704700BFFEE7704770471F
:1003F0007047704770470000002905D0054A126B0E
:100400000243044B1A6304E0024A126B8243014B1D
:100410001A637047000001401048006B1021084328
:100420000E4908630920C006C069102188430921CC
:10043000C906C86108460068102188430921C90619
:100440000860084680690F21090488430121890456
:1004500040180921C906886170470000000001406A
:100460000448406880B20449401802218843014989
:10047000486070470000014000005A5AF8B5054630
:100480000C4616461F46002000902948006B0121AB
:100490004902084326490863002D06D12548C06952
:1004A000032108432349C86116E02248C069400877
:1004B00040002049C86108460068012108431D49E1
:1004C0000860084600694008400008610846C068A6
:1004D000012108431749C8601748844201D103200D
:1004E00003E016492046FFF715FEC0B200902246F1
:1004F000002313480121FFF723FE01022846202292
:100500001043009A92001043304338430143084897
:10051000C16140680B4908430549486000BF044871
:10052000C0690121C90408408842F8D1F8BD000023
:1005300000000140001400480048E80100127A0061
:100540000050D6DC82015A5A0448406880B20449FF
:1005500040184008400001494860704700000140D1
:1005600000005A5AC1029322520212881143084ACB
:10057000916111464968074A1143054A516000BF1D
:10058000034989690122D20311409142F8D1704791
:100590000000014001005A5A704700001048006BEB
:1005A000102108430E4908630920C006C0690821CC
:1005B00088430921C906C8610846006808218843A4
:1005C0000921C9060860084680690F21090388438C
:1005D0000121890340180921C9068861704700007C
:1005E000000001400448406880B2044940180421DA
:1005F00088430149486070470000014000005A5A92
:10060000F0B58BB007460D461646002400200A9030
:100610000990254801460EC9C068079306920591C6
:1006200008901422204910316846FFF7AFFD00BF43
:1006300008E0A00005A90858A84201D90A9403E0DF
:10064000601CC4B2042CF4D300BF28467043099048
:10065000002409E0A000694609580998814201D99F
:10066000099403E0601CC4B2052CF3D300BF0998C1
:100670004002072109030843310108430A99890010
:1006800008433843094988620846406808490843D6
:100690000649486000BF0548806A0121C903084037
:1006A0008842F8D10BB0F0BDC00900000000014045
:1006B00004005A5A70B504460C48006880B20C49D0
:1006C0004018C008C00020430849086000F012F834
:1006D000054600F07BF8054800684007400FA0423F
:1006E00001D0012070BD0020FCE7000000000140A7
:1006F00000005A5AF8B500250027002400260020E3
:1007000000902D48006847077F0F2B488069400400
:10071000040F2948806A8007800F00902648806A6D
:10072000C005C60E3B0000F087F805040C130E1040
:100730003400A000214A11582148FFF7EBFC054680
:100740002FE0204D2DE0204D2BE00125ED0328E08A
:100750000098002804D0012803D003280ED104E01B
:1007600000BF18483546454311E0A000134A115810
:100770001348FFF7CFFC7043054608E0A0000F4A7E
:1007800011580F48FFF7C6FC7043054600BF00BF75
:1007900007E0A000094A11580948FFF7BBFC0546CD
:1007A00000BF00BF044800680006410F2846C8404B
:1007B00005462846F8BD0000000001408009000001
:1007C000006CDC020024F400208000000149086075
:1007D0007047000000000020704770477047704766
:1007E000014802490860704700127A0000000020AA
:1007F00000B5FFF7F5FF9321490209884805400D30
:1008000009498969C90AC9020143074A91619321CB
:10081000490249888805800D1146096A890A8902BA
:100820000143116200BD00000000014070477047A5
:10083000704770477047704730B47446641E25781F
:10084000641CAB4204D3635D5B00E31830BC184703
:100850001D46F8E702E008C8121F08C1002AFAD1B5
:1008600070477047002001E001C1121F002AFBD130
:10087000704700001FB5002401210220FFF7BCFDD6
:100880003848006B20218843203036490863032014
:1008900000020090202001903348039069463348BD
:1008A000FFF71EFDFF2001303049403188614000D4
:1008B0008861FFF773FEFFF7AFFD52E000230222CD
:1008C0002B491846FFF7DAFD022229490020FFF7DD
:1008D00097FE0120FFF7DAFC0220FFF7EBFE04464B
:1008E000002C0CD1FF20013020494031C86140006C
:1008F000C861FFF729FE1F48FFF7E4FC0BE009E0A1
:10090000FF200130194940310862400008621A484E
:10091000FFF7D8FCF4E70820FFF724FE0020FFF7DC
:10092000C9FE0446002C10D1FFF7B0FCFF200130B7
:100930000E494031886140008861FFF753FEFFF7A0
:100940008FFD0E48FFF7BEFC0BE009E0FF200130F1
:10095000064940310862400008620748FFF7B2FCD0
:10096000F4E7ABE700000140FFFF0000000400488F
:100970000024F400801A06008096980038320400A3
:10098000060000000600000006000000060000004F
:100990000600000006000000010000000300000047
:1009A0000200000004000000060000000800000033
:1009B0000A0000000C0000000E0000001000000003
:1009C000808D5B00001BB700002D310101366E01E8
:1009D00080A8120100366E0100512502006CDC0275
:1009E00001A24A04040A00000000002004000000E4
:1009F00054080000080A000004000020040200005F
:080A00006408000000127A00F6
:04000005000000C136
:00000001FF
